:100000000C942A000C9447000C9447000C94470071
:100010000C94200F0C94ED0D0C94B50C0C948A0EDE
:100020000C94D50E0C94920D0C943F0E0C94400D34
:100030000C94770A0C9447000C9447000C944700EA
:100040000C9447000C9447000C9447000C94470014
:100050000C94470011241FBECFE5D8E0DEBFCDBF12
:1000600010E0A0E6B0E0E8E6F2E302C005900D92F1
:10007000AC38B107D9F710E0ACE8B0E001C01D9290
:10008000A33BB107E1F70E9426150C9432190C949A
:100090000000EF92FF920F931F937B018C0120E0F1
:1000A00030E040E05FE40E94F50388238CF0C80153
:1000B000B70120E030E040E05FE40E94C1010E940F
:1000C00055049B01AC01205030404040504806C0D0
:1000D000C801B7010E9455049B01AC01B901CA01D6
:1000E0001F910F91FF90EF900895A0E0B0E0EBE733
:1000F000F0E00C94FB18DC012B01FA019C9192308A
:1001000008F439C1EB018881823008F433C194309E
:1001100069F4843009F02FC111969C91119789815F
:10012000981709F428C1A9E7B0E025C1843009F483
:1001300021C18230A9F4923009F01DC19A01AD01AC
:1001400088E0EA010990AE01E90109929E0181501F
:10015000C1F7E201898111969C918923818308C1AD
:10016000923009F407C112962D903C901397EB0141
:100170008A819B811496AD90BD90CD90DC901797AD
:10018000EC80FD800E811F819101281B390BB90184
:1001900037FF04C066277727621B730B6032710537
:1001A0000CF061C0121613066CF537014801062EDB
:1001B00004C096948794779467940A94D2F721E0C8
:1001C00030E040E050E004C0220F331F441F551FB1
:1001D0006A95D2F721503040404050402E213F21B7
:1001E00040235123211531054105510521F021E01E
:1001F00030E040E050E079018A01E628F72808293C
:1002000019293CC0232BD1F1260E371E350146019A
:10021000062E04C096948794779467940A94D2F734
:1002200021E030E040E050E004C0220F331F441FC3
:10023000551F6A95D2F721503040404050402A2146
:100240003B214C215D21211531054105510521F04E
:1002500021E030E040E050E059016A01A628B728CB
:10026000C828D9280BC0821593052CF01C01AA249C
:10027000BB24650103C0EE24FF24870111969C91E5
:10028000D20111968C91981709F445C0992339F041
:10029000A80197012A193B094C095D0906C0A6016E
:1002A00095012E193F09400B510B57FD08C01182D3
:1002B0003382228224833583468357831DC081E0A5
:1002C00081833382228288279927DC01821B930B4A
:1002D000A40BB50B84839583A683B7830DC0220F2F
:1002E000331F441F551F24833583468357838281E0
:1002F000938101979383828324813581468157813D
:10030000DA01C9010197A109B1098F5F9F4FAF4F72
:10031000BF4328F30BC0918333822282EA0CFB1C7B
:100320000C1D1D1DE482F5820683178383E0808304
:10033000248135814681578157FF1AC0C901AA27F8
:1003400097FDA095BA2F81709070A070B0705695EF
:10035000479537952795822B932BA42BB52B848318
:100360009583A683B7838281938101969383828349
:10037000DF0101C0D201CD01CDB7DEB7E2E10C94BF
:100380001719A0E2B0E0E7ECF1E00C9407196983DB
:100390007A838B839C832D833E834F835887E9E048
:1003A000EE2EF12CEC0EFD1ECE010196B7010E943F
:1003B0007E058E010F5E1F4FCE010596B8010E948B
:1003C0007E058A8991E089278A8BC701B801AE0131
:1003D000475E5F4F0E9475000E94A904A096E6E068
:1003E0000C942319A0E2B0E0E8EFF1E00C940719B7
:1003F00069837A838B839C832D833E834F835887C5
:10040000F9E0EF2EF12CEC0EFD1ECE010196B701A6
:100410000E947E058E010F5E1F4FCE010596B8012A
:100420000E947E05C701B801AE01475E5F4F0E9482
:1004300075000E94A904A096E6E00C942319A0E29E
:10044000B0E0E5E2F2E00C94FB1869837A838B83D9
:100450009C832D833E834F835887CE010196BE0136
:10046000675F7F4F0E947E05CE010596BE016F5EDD
:100470007F4F0E947E059985923088F0898982306D
:10048000C8F0943019F4823051F404C0843029F457
:10049000923081F489E790E0C6C0923049F420E0C0
:1004A0009A858A89981321E02A87CE010996BBC0D4
:1004B000823049F420E09A858A89981321E02A8BBA
:1004C000CE014196B0C02D843E844F8458886D88FB
:1004D0007E888F88988CEE24FF248701AA24BB2471
:1004E000650140E050E060E070E0E0E0F0E0C10174
:1004F00081709070892BE9F0E60CF71C081D191D1E
:100500009A01AB012A0D3B1D4C1D5D1D80E090E062
:10051000A0E0B0E0E614F7040805190520F481E036
:1005200090E0A0E0B0E0BA01A901480F591F6A1F8E
:100530007B1FAA0CBB1CCC1CDD1C97FE08C081E0F5
:1005400090E0A0E0B0E0A82AB92ACA2ADB2A3196B6
:10055000E032F10549F0660C771C881C991C569412
:10056000479437942794C3CFFA85EA892B893C892D
:100570008B859C85280F391F2E5F3F4F17C0CA01FE
:1005800081709070892B61F016950795F794E79428
:1005900080E090E0A0E0B0E8E82AF92A0A2B1B2BC3
:1005A00076956795579547952F5F3F4F77FDE7CF36
:1005B0000CC0440F551F661F771F17FD4160EE0CDE
:1005C000FF1C001F111F21503040403090E05907A0
:1005D00090E0690790E4790760F32B8F3C8FDB0193
:1005E000CA018F779070A070B07080349105A1051A
:1005F000B10561F447FD0AC0E114F10401051105DC
:1006000029F0405C5F4F6F4F7F4F40781A8EFE1786
:1006100011F081E08A8F4D8F5E8F6F8F78A383E01A
:10062000898FCE0149960E94A904A096E2E10C941C
:100630001719A8E1B0E0EFE1F3E00C940319698326
:100640007A838B839C832D833E834F835887B9E0C5
:10065000EB2EF12CEC0EFD1ECE010196B7010E948F
:100660007E058E010F5E1F4FCE010596B8010E94D8
:100670007E052985223008F47EC03989323010F495
:10068000B8017CC08A859A8989278A87243011F02D
:10069000223031F4231709F06EC069E770E06EC0B4
:1006A000343039F41D861E861F86188A1C861B86E8
:1006B00004C0323021F484E08987B7015FC02B8504
:1006C0003C858B899C89281B390B3C872B87ED84C3
:1006D000FE840F851889AD88BE88CF88D88CEA142F
:1006E000FB040C051D0540F4EE0CFF1C001F111F40
:1006F000215030403C872B8720E030E040E050E044
:1007000080E090E0A0E0B0E460E070E0EA14FB0478
:100710000C051D0540F0282B392B4A2B5B2BEA18C2
:10072000FB080C091D09B695A79597958795EE0CC2
:10073000FF1C001F111F6F5F7F4F6F31710531F775
:10074000DA01C9018F779070A070B0708034910584
:10075000A105B10561F427FD0AC0E114F10401050A
:10076000110529F0205C3F4F4F4F5F4F20782D87B8
:100770003E874F87588BBE01675F7F4FCB010E943A
:10078000A9046896EAE00C941F19A8E1B0E0EBEC2C
:10079000F3E00C94071969837A838B839C832D8300
:1007A0003E834F83588789E0E82EF12CEC0EFD1E26
:1007B000CE010196B7010E947E058E010F5E1F4F8C
:1007C000CE010596B8010E947E058985823040F0F1
:1007D0008989823028F0C701B8010E94F60501C05E
:1007E0008FEF6896E6E00C942319A8E1B0E0EBEFF8
:1007F000F3E00C94071969837A838B839C832D83A0
:100800003E834F83588789E0E82EF12CEC0EFD1EC5
:10081000CE010196B7010E947E058E010F5E1F4F2B
:10082000CE010596B8010E947E058985823040F090
:100830008989823028F0C701B8010E94F60501C0FD
:100840008FEF6896E6E00C942319A8E1B0E0EBE2A4
:10085000F4E00C94071969837A838B839C832D833E
:100860003E834F83588789E0E82EF12CEC0EFD1E65
:10087000CE010196B7010E947E058E010F5E1F4FCB
:10088000CE010596B8010E947E058985823040F030
:100890008989823028F0C701B8010E94F60501C09D
:1008A00081E06896E6E00C942319ACE0B0E0EBE55B
:1008B000F4E00C940B1969837A838B839C83CE01BB
:1008C0000196BE016B5F7F4F0E947E058D81823055
:1008D00061F1823050F1843021F48E81882351F10E
:1008E0002EC02F81388537FD20C06E812F31310514
:1008F0001CF06623F9F023C08EE190E0821B930B7D
:1009000029853A854B855C8504C056954795379572
:1009100027958A95D2F76623B1F05095409530958A
:1009200021953F4F4F4F5F4F0EC020E030E040E039
:1009300050E009C02FEF3FEF4FEF5FE704C020E02A
:1009400030E040E050E8B901CA012C96E2E00C9496
:100950002719DF92EF92FF920F931F93FC01E4801F
:10096000F58006811781D1808081823048F480E053
:1009700090E0A0E1B0E0E82AF92A0A2B1B2BA5C0E1
:10098000843009F49FC0823021F4EE24FF248701D3
:1009900005C0E114F1040105110519F4E0E0F0E0EF
:1009A00096C0628173819FEF623879070CF05BC05B
:1009B00022E83FEF261B370B2A3131052CF020E0CF
:1009C00030E040E050E02AC0B801A701022E04C088
:1009D00076956795579547950A94D2F781E090E010
:1009E000A0E0B0E004C0880F991FAA1FBB1F2A9582
:1009F000D2F70197A109B1098E219F21A023B1232C
:100A00000097A105B10521F081E090E0A0E0B0E001
:100A10009A01AB01282B392B4A2B5B2BDA01C90138
:100A20008F779070A070B07080349105A105B105EA
:100A300039F427FF09C0205C3F4F4F4F5F4F04C080
:100A4000215C3F4F4F4F5F4FE0E0F0E02030A0E0EF
:100A50003A07A0E04A07A0E45A0710F0E1E0F0E00E
:100A600079018A0127C06038710564F5FB01E158FE
:100A7000FF4FD801C7018F779070A070B07080349D
:100A80009105A105B10539F4E7FE0DC080E490E0C1
:100A9000A0E0B0E004C08FE390E0A0E0B0E0E80E9A
:100AA000F91E0A1F1B1F17FF05C016950795F7941F
:100AB000E794319687E016950795F794E7948A9521
:100AC000D1F705C0EE24FF248701EFEFF0E06E2F91
:100AD000679566276795902F9F77D794DD24D794E5
:100AE0008E2F8695492F462B582F5D29B701CA01B5
:100AF0001F910F91FF90EF90DF900895FC01DB01B3
:100B0000408151812281622F6F7770E0221F22275E
:100B1000221F9381892F880F822B282F30E0991F65
:100B20009927991F11969C93119721153105A9F5C5
:100B3000411551056105710511F482E037C082E865
:100B40009FEF13969C938E9312979A01AB0167E0E7
:100B5000220F331F441F551F6A95D1F783E08C93F2
:100B60000DC0220F331F441F551F12968D919C916B
:100B70001397019713969C938E931297203080E0E1
:100B8000380780E0480780E4580758F314962D93FF
:100B90003D934D935C93179708952F3F310579F45A
:100BA000411551056105710519F484E08C93089590
:100BB00064FF03C081E08C9312C01C9210C02F57B9
:100BC000304013963C932E93129783E08C9387E0EA
:100BD000440F551F661F771F8A95D1F770641496CE
:100BE0004D935D936D937C93179708951F93DC014C
:100BF000FB019C91923008F447C08081823008F458
:100C000043C0943051F411961C91843099F5818140
:100C1000682F70E0611B71093FC0843021F0923071
:100C200031F48230B9F18181882389F12DC0119688
:100C30001C9111978230F1F081811817D9F4129626
:100C40002D913C911397828193818217930794F0A1
:100C500028173907BCF014968D919D910D90BC9189
:100C6000A02D2481358146815781281739074A07ED
:100C70005B0718F4112341F00AC082179307A407F9
:100C8000B50740F4112319F061E070E005C06FEF83
:100C90007FEF02C060E070E0CB011F910895DF9309
:100CA000CF93CDB7DEB727970FB6F894DEBF0FBE50
:100CB000CDBF89836A834B838B81813009F070C0FB
:100CC0008981282F30E03F832E838E819F8182305F
:100CD000910551F12E813F812330310534F48E810D
:100CE0009F818130910561F0D3C02E813F812330F7
:100CF000310571F18E819F8184309105E9F1C8C081
:100D0000ABE3B0E0EBE3F0E08081482F8A81282F4D
:100D100030E081E090E0022E02C0880F991F0A9413
:100D2000E2F7842B8C93B4C0A8E3B0E0E8E3F0E0F2
:100D30008081482F8A81282F30E081E090E0022EC8
:100D400002C0880F991F0A94E2F7842B8C93A0C0ED
:100D5000A5E3B0E0E5E3F0E08081482F8A81282F09
:100D600030E081E090E0022E02C0880F991F0A94C3
:100D7000E2F7842B8C938CC0A2E3B0E0E2E3F0E0D6
:100D80008081482F8A81282F30E081E090E0022E78
:100D900002C0880F991F0A94E2F7842B8C9378C0C5
:100DA0008B81882309F074C08981282F30E03D832E
:100DB0002C838C819D818230910561F12C813D8154
:100DC0002330310534F48C819D818130910569F0A7
:100DD0005FC02C813D812330310589F18C819D815B
:100DE0008430910509F440C053C0ABE3B0E0EBE3BD
:100DF000F0E08081482F8A81282F30E081E090E068
:100E0000022E02C0880F991F0A94E2F7809584236E
:100E10008C933EC0A8E3B0E0E8E3F0E08081482F87
:100E20008A81282F30E081E090E0022E02C0880FF6
:100E3000991F0A94E2F7809584238C9329C0A5E337
:100E4000B0E0E5E3F0E08081482F8A81282F30E090
:100E500081E090E0022E02C0880F991F0A94E2F709
:100E6000809584238C9314C0A2E3B0E0E2E3F0E029
:100E70008081482F8A81282F30E081E090E0022E87
:100E800002C0880F991F0A94E2F7809584238C93FF
:100E900027960FB6F894DEBF0FBECDBFCF91DF917E
:100EA0000895DF93CF93CDB7DEB727970FB6F894A9
:100EB000DEBF0FBECDBF89836A834B838B818823BE
:100EC00009F075C08981282F30E03F832E838E8101
:100ED0009F818230910561F12E813F812330310560
:100EE00034F48E819F818130910569F0D3C02E81C9
:100EF0003F812330310589F18E819F8184309105B6
:100F000009F440C0C7C0AAE3B0E0EAE3F0E08081A2
:100F1000482F8A81282F30E081E090E0022E02C025
:100F2000880F991F0A94E2F7809584238C93B2C0AE
:100F3000A7E3B0E0E7E3F0E08081482F8A81282F23
:100F400030E081E090E0022E02C0880F991F0A94E1
:100F5000E2F7809584238C939DC0A4E3B0E0E4E3A2
:100F6000F0E08081482F8A81282F30E081E090E0F6
:100F7000022E02C0880F991F0A94E2F780958423FD
:100F80008C9388C0A1E3B0E0E1E3F0E08081482FDA
:100F90008A81282F30E081E090E0022E02C0880F85
:100FA000991F0A94E2F7809584238C9373C08B81F8
:100FB000813009F06FC08981282F30E03D832C8378
:100FC0008C819D818230910551F12C813D812330AE
:100FD000310534F48C819D818130910561F05AC0D6
:100FE0002C813D812330310571F18C819D818430CC
:100FF0009105E9F14FC0AAE3B0E0EAE3F0E08081B7
:10100000482F8A81282F30E081E090E0022E02C034
:10101000880F991F0A94E2F7842B8C933BC0A7E3B7
:10102000B0E0E7E3F0E08081482F8A81282F30E0AC
:1010300081E090E0022E02C0880F991F0A94E2F727
:10104000842B8C9327C0A4E3B0E0E4E3F0E080813C
:10105000482F8A81282F30E081E090E0022E02C0E4
:10106000880F991F0A94E2F7842B8C9313C0A1E395
:10107000B0E0E1E3F0E08081482F8A81282F30E062
:1010800081E090E0022E02C0880F991F0A94E2F7D7
:10109000842B8C9327960FB6F894DEBF0FBECDBF7E
:1010A000CF91DF910895DF93CF9300D000D000D08F
:1010B000CDB7DEB789836A835C834B838981282F10
:1010C00030E03E832D834D815E814230510559F1E0
:1010D0008D819E818330910534F42D813E812130B4
:1010E000310569F05BC04D815E814330510579F176
:1010F0008D819E818430910509F43DC04FC0E9E3A4
:10110000F0E08081282F30E08A81882F90E0A901CB
:1011100002C0559547958A95E2F7CA018170EB8127
:10112000FC8180833BC0E6E3F0E08081282F30E043
:101130008A81882F90E0A90102C0559547958A952C
:10114000E2F7CA018170EB81FC81808327C0E3E371
:10115000F0E08081282F30E08A81882F90E0A9017B
:1011600002C0559547958A95E2F7CA018170EB81D7
:10117000FC81808313C0E0E3F0E08081282F30E021
:101180008A81882F90E0A90102C0559547958A95DC
:10119000E2F7CA018170EB81FC81808326960FB64D
:1011A000F894DEBF0FBECDBFCF91DF910895DF93DE
:1011B000CF9300D000D0CDB7DEB789836A83898111
:1011C000282F30E03C832B838B819C8182309105DA
:1011D000D9F02B813C812330310534F48B819C8103
:1011E0008130910561F01EC02B813C812330310597
:1011F00081F08B819C818430910581F013C0EBE3F9
:10120000F0E08A8180830EC0E8E3F0E08A81808389
:1012100009C0E5E3F0E08A81808304C0E2E3F0E006
:101220008A8180830F900F900F900F90CF91DF9164
:101230000895DF93CF9300D000D0CDB7DEB7898378
:101240006A838981282F30E03C832B838B819C81AA
:1012500082309105D9F02B813C812330310534F463
:101260008B819C818130910561F01EC02B813C8176
:101270002330310581F08B819C818430910581F090
:1012800013C0EAE3F0E08A8180830EC0E7E3F0E078
:101290008A81808309C0E4E3F0E08A81808304C00E
:1012A000E1E3F0E08A8180830F900F900F900F9020
:1012B000CF91DF910895DF93CF9300D000D00F92AC
:1012C000CDB7DEB789837B836A838981282F30E09D
:1012D0003D832C838C819D8182309105E9F02C81A6
:1012E0003D812330310534F48C819D81813091051D
:1012F00061F026C02C813D8123303105A1F08C8125
:101300009D8184309105B1F01BC0E9E3F0E080815C
:10131000EA81FB81808314C0E6E3F0E08081EA810A
:10132000FB8180830DC0E3E3F0E08081EA81FB81F3
:10133000808306C0E0E3F0E08081EA81FB81808366
:101340000F900F900F900F900F90CF91DF91089515
:10135000DF93CF93CDB7DEB7AFE5B0E0EFE5F0E0D8
:10136000808180688C93CF91DF910895DF93CF9334
:10137000CDB7DEB7AFE5B0E0EFE5F0E080818F7785
:101380008C93CF91DF910895DF93CF93CDB7DEB7E4
:10139000ADE2B0E0EDE2F0E0808180618C93ADE2FF
:1013A000B0E0EDE2F0E0808181608C93ADE2B0E0EE
:1013B000EDE2F0E0808180648C93CF91DF9108951D
:1013C000DF93CF930F92CDB7DEB78983EFE2F0E0E2
:1013D00089818083EEE2F0E080818823DCF70F9042
:1013E000CF91DF910895DF93CF93CDB7DEB7EEE2D3
:1013F000F0E080818823DCF7EFE2F0E08081CF919C
:10140000DF910895DF93CF930F92CDB7DEB7898335
:10141000EFE2F0E089818083EEE2F0E080818823D2
:10142000DCF7EFE2F0E080810F90CF91DF9108953B
:10143000DF93CF9300D0CDB7DEB79A8389830AC0FC
:10144000E981FA8180810E94E00989819A8101966F
:101450009A838983E981FA818081882389F70F90B3
:101460000F90CF91DF9108950F931F93DF93CF9348
:1014700000D00F92CDB7DEB79B838A831982898112
:10148000282F30E08A819B818C01020F131F0E945C
:10149000F309F80180830FC089818F5F8983898177
:1014A000282F30E08A819B818C01020F131F0E943C
:1014B000F309F80180838981282F30E08A819B819C
:1014C000FC01E20FF31F8081833231F78981282FDD
:1014D00030E08A819B81FC01E20FF31F10820F90A4
:1014E0000F900F90CF91DF911F910F9108951F9250
:1014F0000F920FB60F921124DF93CF93CDB7DEB7C3
:10150000CF91DF910F900FBE0F901F901895DF9332
:10151000CF93CDB7DEB7A3E5B0E0E3E5F0E080819F
:101520008E7F8C93A3E5B0E0E3E5F0E080818D7FD2
:101530008C93A3E5B0E0E3E5F0E080818B7F8C93B2
:10154000AEE4B0E0EEE4F0E0808188608C93A9E541
:10155000B0E0E9E5F0E0808180618C93A9E5B0E03E
:10156000E9E5F0E08081877F8C93A9E5B0E0E9E5CB
:10157000F0E0808188608C93A9E5B0E0E9E5F0E0D7
:10158000808180618C93AFE4B0E0EFE4F0E0808193
:101590008F7B8C93AFE4B0E0EFE4F0E080818F7755
:1015A0008C93AEE4B0E0EEE4F0E0808181608C9357
:1015B000AEE4B0E0EEE4F0E0808184608C93AEE4D1
:1015C000B0E0EEE4F0E080818D7F8C93EEE4F0E01B
:1015D00080818093A800A5E4B0E0E5E4F0E080819C
:1015E0008E7F8C93A5E4B0E0E5E4F0E080818D7F10
:1015F0008C93A5E4B0E0E5E4F0E080818B7F8C93F0
:10160000CF91DF910895DF93CF9300D00F92CDB7A4
:10161000DEB789838981282F30E03B832A838A8142
:101620009B818130910501F12A813B812230310576
:1016300089F18A819B81009709F041C0A3E5B0E060
:10164000E3E5F0E080818E7F8C93A3E5B0E0E3E5F5
:10165000F0E080818D7F8C93A3E5B0E0E3E5F0E0DE
:1016600080818B7F8C932BC0AEE4B0E0EEE4F0E0A1
:1016700080818E7F8C93AEE4B0E0EEE4F0E0808178
:101680008D7F8C93AEE4B0E0EEE4F0E080818B7F60
:101690008C9315C0A5E4B0E0E5E4F0E080818E7F96
:1016A0008C93A5E4B0E0E5E4F0E080818D7F8C933D
:1016B000A5E4B0E0E5E4F0E080818B7F8C930F90AF
:1016C0000F900F90CF91DF910895DF93CF9300D0CB
:1016D0000F92CDB7DEB789838981282F30E03B8315
:1016E0002A838A819B818130910579F02A813B810F
:1016F0002230310581F08A819B81009789F4E3E5EE
:10170000F0E08091A70080830BC0EEE4F0E08091D0
:10171000A800808305C0E5E4F0E08091A900808303
:101720000F900F900F90CF91DF910895DF93CF939B
:1017300000D000D000D0CDB7DEB78B836C838B8117
:10174000282F30E03E832D838D819E81813091054D
:1017500031F12D813E812230310509F442C08D8165
:101760009E81009709F057C0ECE5F0E08C81482F8E
:1017700050E0CA019C01220F331FC9019695982F92
:10178000882797958795821B930B840F951F24E6D6
:1017900030E0B9010E94AB18CB0180833CC08C8142
:1017A000882F90E0A0E0B0E02FEF3FEF40E050E066
:1017B000BC01CD010E947818DC01CB0124E630E0A9
:1017C00040E050E0BC01CD010E94BE18DA01C90121
:1017D0009A838983EAE4F0E089819A819183808306
:1017E0001AC0E3E4F0E08C81482F50E0CA019C016C
:1017F000220F331FC9019695982F882797958795B3
:10180000821B930B840F951F24E630E0B9010E94E0
:10181000AB18CB01808326960FB6F894DEBF0FBEBF
:10182000CDBFCF91DF910895DF93CF9300D0CDB797
:10183000DEB79A8389830F900F90CF91DF9108953F
:10184000DF93CF9300D00F92CDB7DEB789837B8330
:101850006A83E2E5F0E080919200909193008083AA
:10186000ECE4F0E080919400909195009183808366
:10187000E4E4F0E080919600909197008083898164
:10188000882F90E0880F991FFC01E456FF4F8A8152
:101890009B819183808383E067E041E00E944F0653
:1018A0000F900F900F90CF91DF910895DF93CF931A
:1018B000CDB7DEB7A9E5B0E0E9E5F0E08081806270
:1018C0008C93CF91DF910895DF93CF93CDB7DEB79F
:1018D000A9E5B0E0E9E5F0E080818F7D8C93CF91C0
:1018E000DF910895DF93CF93CDB7DEB78091AC0041
:1018F0009091AD009695982F882797958795CF91D1
:10190000DF910895DF93CF93CDB7DEB78091AE001E
:101910009091AF00CF91DF910895DF93CF93CDB732
:10192000DEB78091AA009091AB009695982F8827FA
:1019300097958795CF91DF910895DF93CF93CDB79A
:10194000DEB72091AC003091AD008091AA0090915B
:10195000AB00A901481B590BCA019695982F8827FF
:1019600097958795CF91DF9108951F920F920FB6AB
:101970000F9211242F933F934F935F936F937F9315
:101980008F939F93AF93BF93EF93FF93DF93CF9387
:10199000CDB7DEB78091A600882309F04DC081E065
:1019A0008093A600E6E4F0E0208131818091A400DC
:1019B0009091A500A901481B590BCA019093AD0055
:1019C0008093AC002091A2003091A3008091A400EC
:1019D0009091A500A901481B590BCA019093AB0037
:1019E0008093AA00E6E4F0E0808191819093A500C5
:1019F0008093A4002091AA003091AB0084E690E08F
:101A0000AC01249FC001259F900D349F900D11249F
:101A10002091AC003091AD00B9010E949718CB0124
:101A20009093AF008093AE00AEE4B0E0EEE4F0E05F
:101A300080818F7B8C9311C01092A600E6E4F0E0C9
:101A4000808191819093A3008093A200AEE4B0E0E6
:101A5000EEE4F0E0808180648C93CF91DF91FF9180
:101A6000EF91BF91AF919F918F917F916F915F9116
:101A70004F913F912F910F900FBE0F901F9018958F
:101A80001F920F920FB60F9211242F933F934F93F3
:101A90005F936F937F938F939F93AF93BF93EF93D6
:101AA000FF93DF93CF93CDB7DEB780919C009091E9
:101AB0009D00009721F180918C0090918D000196FE
:101AC00090938D0080938C0020918C0030918D003C
:101AD00080919800909199002817390781F410920D
:101AE0008D0010928C00E2E5F0E0809192009091E0
:101AF00093008083E0919C00F0919D000995CF9127
:101B0000DF91FF91EF91BF91AF919F918F917F9165
:101B10006F915F914F913F912F910F900FBE0F905A
:101B20001F9018951F920F920FB60F9211242F93AA
:101B30003F934F935F936F937F938F939F93AF9355
:101B4000BF93EF93FF93DF93CF93CDB7DEB7809131
:101B50009E0090919F00009769F180918E00909176
:101B60008F00019690938F0080938E0020918E00BD
:101B700030918F0080918100909182002817390761
:101B8000C9F410928F0010928E00EDE4F0E0809185
:101B9000940090919500892F99278083ECE4F0E0E0
:101BA00080919400909195008083E0919E00F09147
:101BB0009F000995CF91DF91FF91EF91BF91AF9178
:101BC0009F918F917F916F915F914F913F912F9155
:101BD0000F900FBE0F901F9018951F920F920FB687
:101BE0000F9211242F933F934F935F936F937F93A3
:101BF0008F939F93AF93BF93EF93FF93DF93CF9315
:101C0000CDB7DEB78091A0009091A100009721F19F
:101C10008091900090919100019690939100809313
:101C20009000209190003091910080919A009091C5
:101C30009B002817390781F41092910010929000B0
:101C4000E4E4F0E080919600909197008083E09129
:101C5000A000F091A1000995CF91DF91FF91EF9144
:101C6000BF91AF919F918F917F916F915F914F91B4
:101C70003F912F910F900FBE0F901F9018951F92BC
:101C80000F920FB60F9211242F933F934F935F93B0
:101C90006F937F938F939F93AF93BF93EF93FF9334
:101CA000DF93CF93CDB7DEB780919C0090919D00DC
:101CB0000097E9F080918C0090918D0001969093AF
:101CC0008D0080938C0020918C0030918D0080914C
:101CD0009800909199002817390749F410928D00C7
:101CE00010928C00E0919C00F0919D000995CF919D
:101CF000DF91FF91EF91BF91AF919F918F917F9174
:101D00006F915F914F913F912F910F900FBE0F9068
:101D10001F9018951F920F920FB60F9211242F93B8
:101D20003F934F935F936F937F938F939F93AF9363
:101D3000BF93EF93FF93DF93CF93CDB7DEB780913F
:101D40009E0090919F000097E9F080918E00909105
:101D50008F00019690938F0080938E0020918E00CB
:101D600030918F008091810090918200281739076F
:101D700049F410928F0010928E00E0919E00F09135
:101D80009F000995CF91DF91FF91EF91BF91AF91A6
:101D90009F918F917F916F915F914F913F912F9183
:101DA0000F900FBE0F901F9018951F920F920FB6B5
:101DB0000F9211242F933F934F935F936F937F93D1
:101DC0008F939F93AF93BF93EF93FF93DF93CF9343
:101DD000CDB7DEB780919E0090919F000097E9F00B
:101DE00080918E0090918F00019690938F00809348
:101DF0008E0020918E0030918F0080918100909113
:101E000082002817390749F410928F0010928E0033
:101E1000E0919E00F0919F000995CF91DF91FF9195
:101E2000EF91BF91AF919F918F917F916F915F9152
:101E30004F913F912F910F900FBE0F901F901895CB
:101E40001F920F920FB60F9211242F933F934F932F
:101E50005F936F937F938F939F93AF93BF93EF9312
:101E6000FF93DF93CF93CDB7DEB78091A000909121
:101E7000A1000097E9F08091900090919100019667
:101E80009093910080939000209190003091910068
:101E900080919A0090919B002817390749F410927D
:101EA000910010929000E091A000F091A10009959E
:101EB000CF91DF91FF91EF91BF91AF919F918F9162
:101EC0007F916F915F914F913F912F910F900FBE36
:101ED0000F901F901895DF93CF93CDB7DEB7ABE28D
:101EE000B0E0EBE2F0E0808182608C93E9E2F0E028
:101EF00087E68083E0E4F0E01082AAE2B0E0EAE264
:101F0000F0E0808188608C93AAE2B0E0EAE2F0E041
:101F1000808180618C93A0E4B0E0E0E4F0E0808117
:101F200086688C93CF91DF910895DF93CF930F92C2
:101F3000CDB7DEB78983ECE2F0E089818083EBE204
:101F4000F0E08081829586958770882F90E081707F
:101F500090700097A1F30F90CF91DF910895DF93D8
:101F6000CF93CDB7DEB7EBE2F0E080818823DCF7DA
:101F7000ECE2F0E08081CF91DF910895DF93CF9381
:101F800000D0CDB7DEB79A8389830AC0E981FA8190
:101F900080810E94950F89819A8101969A83898315
:101FA000E981FA818081882389F70F900F90CF9182
:101FB000DF9108950F931F93DF93CF9300D00F927B
:101FC000CDB7DEB79B838A8319828981282F30E0C1
:101FD0008A819B818C01020F131F0E94AF0FF801B1
:101FE00080838981282F30E08A819B81FC01E20F68
:101FF000F31F80810E94950F1AC089818F5F8983AA
:102000008981282F30E08A819B818C01020F131F68
:102010000E94AF0FF80180838981282F30E08A81E8
:102020009B81FC01E20FF31F80810E94950F898143
:10203000282F30E08A819B81FC01E20FF31F808111
:102040008D30D9F68981282F30E08A819B81FC016F
:10205000E20FF31F10820F900F900F90CF91DF913E
:102060001F910F910895DF93CF93CDB7DEB72F97D0
:102070000FB6F894DEBF0FBECDBF8F8783E060E060
:1020800040E00E944F0683E061E040E00E944F067E
:1020900081E06F850E94D70883E062E041E00E9402
:1020A0004F0680E090E0A0E0B0E48B879C87AD878E
:1020B000BE876B857C858D859E8520E030E04AEF6C
:1020C00054E40E941F02DC01CB018F839887A9870B
:1020D000BA876F81788589859A8520E030E040E86D
:1020E0005FE30E94250488232CF481E090E09E8326
:1020F0008D833FC06F81788589859A8520E03FEF89
:102100004FE757E40E94C50318164CF56B857C8594
:102110008D859E8520E030E040E251E40E941F0260
:10212000DC01CB01BC01CD010E944900DC01CB01E7
:102130009E838D830FC088EC90E09C838B838B8182
:102140009C810197F1F79C838B838D819E81019700
:102150009E838D838D819E81009769F714C06F8166
:10216000788589859A850E944900DC01CB019E8390
:102170008D838D819E819A83898389819A8101973C
:10218000F1F79A83898383E062E040E00E944F0682
:102190002F960FB6F894DEBF0FBECDBFCF91DF9163
:1021A0000895DF93CF93CDB7DEB72F970FB6F8948E
:1021B000DEBF0FBECDBF8F8783E060E041E00E94AD
:1021C0004F0683E061E040E00E944F0681E06F85AA
:1021D0000E94D70883E062E041E00E944F0680E061
:1021E00090E0A0E0B0E48B879C87AD87BE876B85CD
:1021F0007C858D859E8520E030E04AEF54E40E9486
:102200001F02DC01CB018F839887A987BA876F8172
:10221000788589859A8520E030E040E85FE30E9478
:10222000250488232CF481E090E09E838D833FC0B9
:102230006F81788589859A8520E03FEF4FE757E4E5
:102240000E94C50318164CF56B857C858D859E858F
:1022500020E030E040E251E40E941F02DC01CB01AB
:10226000BC01CD010E944900DC01CB019E838D831E
:102270000FC088EC90E09C838B838B819C810197BD
:10228000F1F79C838B838D819E8101979E838D8343
:102290008D819E81009769F714C06F81788589854B
:1022A0009A850E944900DC01CB019E838D838D813C
:1022B0009E819A83898389819A810197F1F79A8314
:1022C000898383E062E040E00E944F062F960FB6BC
:1022D000F894DEBF0FBECDBFCF91DF9108950F936D
:1022E0001F93DF93CF93CDB7DEB7CC54D0400FB65A
:1022F000F894DEBF0FBECDBFFE01E75BFF4F80E06D
:1023000090E0A0E2B2E480839183A283B3838E0144
:102310000B5B1F4FFE01E75BFF4F60817181828184
:10232000938120E030E04AEF54E40E941F02DC0178
:10233000CB01F80180839183A283B383FE01EB5B21
:10234000FF4F608171818281938120E030E040E81D
:102350005FE30E942504882344F4FE01ED5BFF4FF8
:1023600081E090E09183808364C0FE01EB5BFF4FCE
:10237000608171818281938120E03FEF4FE757E4D4
:102380000E94C50318160CF043C0FE01E75BFF4F27
:10239000608171818281938120E030E040E251E4EC
:1023A0000E941F02DC01CB018E010D5B1F4FBC019F
:1023B000CD010E944900DC01CB01F80191838083AB
:1023C0001FC0FE01EF5BFF4F88EC90E0918380839C
:1023D000FE01EF5BFF4F808191810197F1F7FE01D4
:1023E000EF5BFF4F91838083DE01AD5BBF4FFE014A
:1023F000ED5BFF4F80819181019711969C938E93A5
:10240000FE01ED5BFF4F808191810097D1F624C0E2
:102410008E010D5B1F4FFE01EB5BFF4F60817181F1
:10242000828193810E944900DC01CB01F8019183F4
:102430008083FE01ED5BFF4F80819181FE01FF965D
:1024400091838083FE01FF96808191810197F1F74E
:10245000FE01FF96918380838FE30E94331080E01A
:1024600090E0A4E4B2E48BAF9CAFADAFBEAF6BAD78
:102470007CAD8DAD9EAD2BEA3AEA4AE250E40E9473
:102480001F02DC01CB018FAB98AFA9AFBAAF6FA928
:1024900078AD89AD9AAD20E030E040E85FE30E947E
:1024A000250488231CF481E08EAB91C06FA978AD20
:1024B00089AD9AAD20E030E04FE753E40E94C503B8
:1024C00018160CF07BC06BAD7CAD8DAD9EAD20E0E1
:1024D00030E04AE754E40E941903DC01CB018AABE7
:1024E0009BABACABBDAB6AA97BA98CA99DA920E035
:1024F00030E04AEF54E40E941F02DC01CB018EA7BA
:102500009FA7A8ABB9AB6EA57FA588A999A920E024
:1025100030E040E85FE30E94250488232CF481E04A
:1025200090E09DA78CA73FC06EA57FA588A999A91B
:1025300020E03FEF4FE757E40E94C50318164CF523
:102540006AA97BA98CA99DA920E030E040E251E472
:102550000E941F02DC01CB01BC01CD010E94490099
:10256000DC01CB019DA78CA70FC088EC90E09BA756
:102570008AA78AA59BA50197F1F79BA78AA78CA597
:102580009DA501979DA78CA78CA59DA5009769F790
:1025900024C06EA57FA588A999A90E944900DC01E5
:1025A000CB019DA78CA78CA59DA599A788A788A5D9
:1025B00099A50197F1F799A788A70FC06FA978ADE2
:1025C00089AD9AAD0E944900DC01CB018EAB8EA98A
:1025D0008FA38FA18A95F1F78FA38CE00E9433100F
:1025E00080E090E0A4E4B2E48BA39CA3ADA3BEA3DF
:1025F0006BA17CA18DA19EA12BEA3AEA4AE250E4AC
:102600000E941F02DC01CB018F8F98A3A9A3BAA35C
:102610006F8D78A189A19AA120E030E040E85FE3C6
:102620000E94250488231CF481E08E8F91C06F8D59
:1026300078A189A19AA120E030E04FE753E40E94FD
:10264000C50318160CF07BC06BA17CA18DA19EA1C7
:1026500020E030E04AE754E40E941903DC01CB019A
:102660008A8F9B8FAC8FBD8F6A8D7B8D8C8D9D8D5E
:1026700020E030E04AEF54E40E941F02DC01CB016D
:102680008E8B9F8BA88FB98F6E897F89888D998D4E
:1026900020E030E040E85FE30E94250488232CF42A
:1026A00081E090E09D8B8C8B3FC06E897F89888D07
:1026B000998D20E03FEF4FE757E40E94C5031816BD
:1026C0004CF56A8D7B8D8C8D9D8D20E030E040E255
:1026D00051E40E941F02DC01CB01BC01CD010E942C
:1026E0004900DC01CB019D8B8C8B0FC088EC90E006
:1026F0009B8B8A8B8A899B890197F1F79B8B8A8BAD
:102700008C899D8901979D8B8C8B8C899D890097E5
:1027100069F724C06E897F89888D998D0E94490050
:10272000DC01CB019D8B8C8B8C899D89998B888B4F
:10273000888999890197F1F7998B888B0FC06F8DE4
:1027400078A189A19AA10E944900DC01CB018E8F5A
:102750008E8D8F878F858A95F1F78F8781E00E9414
:10276000331080E090E0A0E0B0E48B879C87AD87D9
:10277000BE876B857C858D859E8520E030E04AEFA5
:1027800054E40E941F02DC01CB018F839887A98744
:10279000BA876F81788589859A8520E030E040E8A6
:1027A0005FE30E94250488232CF481E090E09E835F
:1027B0008D833FC06F81788589859A8520E03FEFC2
:1027C0004FE757E40E94C50318164CF56B857C85CE
:1027D0008D859E8520E030E040E251E40E941F029A
:1027E000DC01CB01BC01CD010E944900DC01CB0121
:1027F0009E838D830FC088EC90E09C838B838B81BC
:102800009C810197F1F79C838B838D819E81019739
:102810009E838D838D819E81009769F714C06F819F
:10282000788589859A850E944900DC01CB019E83C9
:102830008D838D819E819A83898389819A81019775
:10284000F1F79A838983C45BDF4F0FB6F894DEBF3C
:102850000FBECDBFCF91DF911F910F910895DF93F0
:10286000CF93CDB7DEB72E970FB6F894DEBF0FBE6D
:10287000CDBF81E00E94331080E090E0A0E0B0E4A2
:102880008B879C87AD87BE876B857C858D859E8574
:1028900020E030E04AEF54E40E941F02DC01CB014B
:1028A0008F839887A987BA876F81788589859A856C
:1028B00020E030E040E85FE30E94250488232CF408
:1028C00081E090E09E838D833FC06F81788589850C
:1028D0009A8520E03FEF4FE757E40E94C5031816A2
:1028E0004CF56B857C858D859E8520E030E040E24F
:1028F00051E40E941F02DC01CB01BC01CD010E940A
:102900004900DC01CB019E838D830FC088EC90E0F1
:102910009C838B838B819C810197F1F79C838B83B4
:102920008D819E8101979E838D838D819E810097ED
:1029300069F714C06F81788589859A850E9449005E
:10294000DC01CB019E838D838D819E819A83898357
:1029500089819A810197F1F79A8389832E960FB620
:10296000F894DEBF0FBECDBFCF91DF910895DF9306
:10297000CF9300D00F92CDB7DEB78A836B831982D5
:102980008A81882319F48B81898306C08A818130EA
:1029900019F48B81805C8983898180580E9433106F
:1029A0000F900F900F90CF91DF910895DF93CF9309
:1029B00000D000D00F92CDB7DEB79C838B836D83A0
:1029C0001A828D81882F90E0880F991F880F991F98
:1029D000880F991F8A838A81805C0E943310198234
:1029E0000EC08981282F30E08B819C81FC01E20F91
:1029F000F31F80810E94D11089818F5F8983898133
:102A0000883078F30F900F900F900F900F90CF9128
:102A1000DF910895DF93CF9300D0CDB7DEB79A83CF
:102A200089830AC0E981FA8180810E94D11089815D
:102A30009A8101969A838983E981FA81808188232A
:102A400089F70F900F90CF91DF910895DF93CF9387
:102A5000CDB7DEB7E8970FB6F894DEBF0FBECDBF97
:102A60000E946B0F82E064E041E00E94510782E027
:102A700065E041E00E94510782E067E041E00E948A
:102A8000510782E066E040E00E94510782E064E086
:102A900041E00E944F060E94C40982E064E040E0E9
:102AA0000E944F0681E06FEF0E94190983E06FEFEB
:102AB0000E9419090E946F1180E690E00E940A1599
:102AC00081E060E00E94B7148BE690E00E940A1556
:102AD0000E94A8090E94870A81E06CE00E94960B80
:102AE00024E637E181E0B9010E94200C80E090E00B
:102AF000A8E4B3E48DAB9EABAFABB8AF6DA97EA934
:102B00008FA998AD20E030E04AEF54E40E941F0204
:102B1000DC01CB0189AB9AABABABBCAB69A97AA9A1
:102B20008BA99CA920E030E040E85FE30E942504E7
:102B300088232CF481E090E098AB8FA73FC069A96F
:102B40007AA98BA99CA920E03FEF4FE757E40E94A8
:102B5000C50318164CF56DA97EA98FA998AD20E084
:102B600030E040E251E40E941F02DC01CB01BC01D5
:102B7000CD010E944900DC01CB0198AB8FA70FC0AB
:102B800088EC90E09EA78DA78DA59EA50197F1F7F3
:102B90009EA78DA78FA598A9019798AB8FA78FA502
:102BA00098A9009769F714C069A97AA98BA99CA96B
:102BB0000E944900DC01CB0198AB8FA78FA598A993
:102BC0009CA78BA78BA59CA50197F1F79CA78BA72A
:102BD00084E40E94E00980E090E0A8E4B3E48FA3DD
:102BE00098A7A9A7BAA76FA178A589A59AA520E05B
:102BF00030E04AEF54E40E941F02DC01CB018BA3BA
:102C00009CA3ADA3BEA36BA17CA18DA19EA120E03E
:102C100030E040E85FE30E94250488232CF481E043
:102C200090E09AA389A33FC06BA17CA18DA19EA136
:102C300020E03FEF4FE757E40E94C50318164CF51C
:102C40006FA178A589A59AA520E030E040E251E483
:102C50000E941F02DC01CB01BC01CD010E94490092
:102C6000DC01CB019AA389A30FC088EC90E098A364
:102C70008F8F8F8D98A10197F1F798A38F8F89A1DE
:102C80009AA101979AA389A389A19AA1009769F7AC
:102C900014C06BA17CA18DA19EA10E944900DC0102
:102CA000CB019AA389A389A19AA19E8F8D8F8D8D27
:102CB0009E8D0197F1F79E8F8D8F81E20E94020A0F
:102CC0008093B00080E090E0A8E4B3E4898F9A8F0D
:102CD000AB8FBC8F698D7A8D8B8D9C8D20E030E021
:102CE0004AEF54E40E941F02DC01CB018D8B9E8BC6
:102CF000AF8BB88F6D897E898F89988D20E030E009
:102D000040E85FE30E94250488232CF481E090E0F2
:102D10009C8B8B8B3FC06D897E898F89988D20E03D
:102D20003FEF4FE757E40E94C50318164CF5698D35
:102D30007A8D8B8D9C8D20E030E040E251E40E9442
:102D40001F02DC01CB01BC01CD010E944900DC0166
:102D5000CB019C8B8B8B0FC088EC90E09A8B898B7E
:102D600089899A890197F1F79A8B898B8B899C893C
:102D700001979C8B8B8B8B899C89009769F714C07A
:102D80006D897E898F89988D0E944900DC01CB0175
:102D90009C8B8B8B8B899C89988B8F878F8598894F
:102DA0000197F1F7988B8F8782E20E94020A809345
:102DB000B10081E06DE00E94B7148091B0000E94E4
:102DC000D11081E06EE00E94B7148091B1000E94A2
:102DD000D1100E94AF0F8093B2008091B2000E9488
:102DE000E00980E090E0AAEFB3E48B879C87AD8791
:102DF000BE876B857C858D859E8520E030E04AEF1F
:102E000054E40E941F02DC01CB018F839887A987BD
:102E1000BA876F81788589859A8520E030E040E81F
:102E20005FE30E94250488232CF481E090E09E83D8
:102E30008D833FC06F81788589859A8520E03FEF3B
:102E40004FE757E40E94C50318164CF56B857C8547
:102E50008D859E8520E030E040E251E40E941F0213
:102E6000DC01CB01BC01CD010E944900DC01CB019A
:102E70009E838D830FC088EC90E09C838B838B8135
:102E80009C810197F1F79C838B838D819E810197B3
:102E90009E838D838D819E81009769F79ACF6F8184
:102EA000788589859A850E944900DC01CB019E8343
:102EB0008D838D819E819A83898389819A810197EF
:102EC000F1F79A83898385CFDF93CF93CDB7DEB7B0
:102ED0006C970FB6F894DEBF0FBECDBF84E40E949E
:102EE000E00980E090E0A8E4B3E4898F9A8FAB8F8B
:102EF000BC8F698D7A8D8B8D9C8D20E030E04AEF00
:102F000054E40E941F02DC01CB018D8B9E8BAF8BA2
:102F1000B88F6D897E898F89988D20E030E040E8F8
:102F20005FE30E94250488232CF481E090E09C8BD1
:102F30008B8B3FC06D897E898F89988D20E03FEF14
:102F40004FE757E40E94C50318164CF5698D7A8D3A
:102F50008B8D9C8D20E030E040E251E40E941F0206
:102F6000DC01CB01BC01CD010E944900DC01CB0199
:102F70009C8B8B8B0FC088EC90E09A8B898B898916
:102F80009A890197F1F79A8B898B8B899C89019794
:102F90009C8B8B8B8B899C89009769F714C06D89FA
:102FA0007E898F89988D0E944900DC01CB019C8B22
:102FB0008B8B8B899C89988B8F878F8598890197BC
:102FC000F1F7988B8F8781E20E94020A8093B0000C
:102FD00080E090E0A8E4B3E48B879C87AD87BE8750
:102FE0006B857C858D859E8520E030E04AEF54E43A
:102FF0000E941F02DC01CB018F839887A987BA87C3
:103000006F81788589859A8520E030E040E85FE32C
:103010000E94250488232CF481E090E09E838D8318
:103020003FC06F81788589859A8520E03FEF4FE723
:1030300057E40E94C50318164CF56B857C858D8579
:103040009E8520E030E040E251E40E941F02DC0156
:10305000CB01BC01CD010E944900DC01CB019E8364
:103060008D830FC088EC90E09C838B838B819C8147
:103070000197F1F79C838B838D819E8101979E83BD
:103080008D838D819E81009769F714C06F8178854B
:1030900089859A850E944900DC01CB019E838D833E
:1030A0008D819E819A83898389819A810197F1F725
:1030B0009A83898382E20E94020A8093B10081E0B0
:1030C0006DE00E94B7148091B0000E94D11081E0A1
:1030D0006EE00E94B7148091B1000E94D1106C96EE
:1030E0000FB6F894DEBF0FBECDBFCF91DF9108952C
:1030F000629FD001739FF001829FE00DF11D649FDC
:10310000E00DF11D929FF00D839FF00D749FF00D67
:10311000659FF00D9927729FB00DE11DF91F639F08
:10312000B00DE11DF91FBD01CF0111240895AA1BA7
:10313000BB1B51E107C0AA1FBB1FA617B70710F0A2
:10314000A61BB70B881F991F5A95A9F780959095D4
:10315000BC01CD01089597FB092E07260AD077FD03
:1031600004D0E5DF06D000201AF4709561957F4FFA
:103170000895F6F7909581959F4F089597FB092E36
:1031800005260ED057FD04D014D00AD0001C38F408
:1031900050954095309521953F4F4F4F5F4F089583
:1031A000F6F790958095709561957F4F8F4F9F4F63
:1031B0000895A1E21A2EAA1BBB1BFD010DC0AA1F78
:1031C000BB1FEE1FFF1FA217B307E407F50720F090
:1031D000A21BB30BE40BF50B661F771F881F991F0B
:1031E0001A9469F760957095809590959B01AC0154
:1031F000BD01CF0108952F923F924F925F926F923F
:103200007F928F929F92AF92BF92CF92DF92EF9276
:10321000FF920F931F93CF93DF93CDB7DEB7CA1BF7
:10322000DB0B0FB6F894DEBF0FBECDBF09942A8822
:10323000398848885F846E847D848C849B84AA84CA
:10324000B984C884DF80EE80FD800C811B81AA8157
:10325000B981CE0FD11D0FB6F894DEBF0FBECDBF22
:08326000ED010895F894FFCF81
:1032680057656C636F6D65203A290054656D70650C
:103278007261747572653A20000000000000000059
:0C328800000A000004001F000400000009
:00000001FF
