:100000000C942A000C9447000C9447000C94470071
:100010000C94EA0F0C94B70E0C947F0D0C94540FB3
:100020000C949F0F0C945C0E0C94090F0C940A0E08
:100030000C94AD0B0C9447000C9447000C944700B3
:100040000C9447000C9447000C9447000C94470014
:100050000C94470011241FBECFE5D8E0DEBFCDBF12
:1000600011E0A0E6B0E0E2E9F0E302C005900D92F5
:10007000AE3BB107D9F711E0AEEBB1E001C01D9284
:10008000A23EB107E1F70E944C160C9447180C945D
:100090000000EF92FF920F931F937B018C0120E0F1
:1000A00030E040E05FE40E94F50388238CF0C80153
:1000B000B70120E030E040E05FE40E94C1010E940F
:1000C00055049B01AC01205030404040504806C0D0
:1000D000C801B7010E9455049B01AC01B901CA01D6
:1000E0001F910F91FF90EF900895A0E0B0E0EBE733
:1000F000F0E00C94DF17DC012B01FA019C919230A7
:1001000008F439C1EB018881823008F433C194309E
:1001100069F4843009F02FC111969C91119789815F
:10012000981709F428C1ACEAB0E025C1843009F47D
:1001300021C18230A9F4923009F01DC19A01AD01AC
:1001400088E0EA010990AE01E90109929E0181501F
:10015000C1F7E201898111969C918923818308C1AD
:10016000923009F407C112962D903C901397EB0141
:100170008A819B811496AD90BD90CD90DC901797AD
:10018000EC80FD800E811F819101281B390BB90184
:1001900037FF04C066277727621B730B6032710537
:1001A0000CF061C0121613066CF537014801062EDB
:1001B00004C096948794779467940A94D2F721E0C8
:1001C00030E040E050E004C0220F331F441F551FB1
:1001D0006A95D2F721503040404050402E213F21B7
:1001E00040235123211531054105510521F021E01E
:1001F00030E040E050E079018A01E628F72808293C
:1002000019293CC0232BD1F1260E371E350146019A
:10021000062E04C096948794779467940A94D2F734
:1002200021E030E040E050E004C0220F331F441FC3
:10023000551F6A95D2F721503040404050402A2146
:100240003B214C215D21211531054105510521F04E
:1002500021E030E040E050E059016A01A628B728CB
:10026000C828D9280BC0821593052CF01C01AA249C
:10027000BB24650103C0EE24FF24870111969C91E5
:10028000D20111968C91981709F445C0992339F041
:10029000A80197012A193B094C095D0906C0A6016E
:1002A00095012E193F09400B510B57FD08C01182D3
:1002B0003382228224833583468357831DC081E0A5
:1002C00081833382228288279927DC01821B930B4A
:1002D000A40BB50B84839583A683B7830DC0220F2F
:1002E000331F441F551F24833583468357838281E0
:1002F000938101979383828324813581468157813D
:10030000DA01C9010197A109B1098F5F9F4FAF4F72
:10031000BF4328F30BC0918333822282EA0CFB1C7B
:100320000C1D1D1DE482F5820683178383E0808304
:10033000248135814681578157FF1AC0C901AA27F8
:1003400097FDA095BA2F81709070A070B0705695EF
:10035000479537952795822B932BA42BB52B848318
:100360009583A683B7838281938101969383828349
:10037000DF0101C0D201CD01CDB7DEB7E2E10C94BF
:10038000FB17A0E2B0E0E7ECF1E00C94EB17698317
:100390007A838B839C832D833E834F835887E9E048
:1003A000EE2EF12CEC0EFD1ECE010196B7010E943F
:1003B00046068E010F5E1F4FCE010596B8010E94C2
:1003C00046068A8991E089278A8BC701B801AE0168
:1003D000475E5F4F0E9475000E947105A096E6E09F
:1003E0000C940718A0E2B0E0E8EFF1E00C94EB17F2
:1003F00069837A838B839C832D833E834F835887C5
:10040000F9E0EF2EF12CEC0EFD1ECE010196B701A6
:100410000E9446068E010F5E1F4FCE010596B80161
:100420000E944606C701B801AE01475E5F4F0E94B9
:1004300075000E947105A096E6E00C940718A0E2F2
:10044000B0E0E5E2F2E00C94DF1769837A838B83F6
:100450009C832D833E834F835887CE010196BE0136
:10046000675F7F4F0E944606CE010596BE016F5E14
:100470007F4F0E9446069985923088F089898230A4
:10048000C8F0943019F4823051F404C0843029F457
:10049000923081F48CEA90E0C6C0923049F420E0BA
:1004A0009A858A89981321E02A87CE010996BBC0D4
:1004B000823049F420E09A858A89981321E02A8BBA
:1004C000CE014196B0C02D843E844F8458886D88FB
:1004D0007E888F88988CEE24FF248701AA24BB2471
:1004E000650140E050E060E070E0E0E0F0E0C10174
:1004F00081709070892BE9F0E60CF71C081D191D1E
:100500009A01AB012A0D3B1D4C1D5D1D80E090E062
:10051000A0E0B0E0E614F7040805190520F481E036
:1005200090E0A0E0B0E0BA01A901480F591F6A1F8E
:100530007B1FAA0CBB1CCC1CDD1C97FE08C081E0F5
:1005400090E0A0E0B0E0A82AB92ACA2ADB2A3196B6
:10055000E032F10549F0660C771C881C991C569412
:10056000479437942794C3CFFA85EA892B893C892D
:100570008B859C85280F391F2E5F3F4F17C0CA01FE
:1005800081709070892B61F016950795F794E79428
:1005900080E090E0A0E0B0E8E82AF92A0A2B1B2BC3
:1005A00076956795579547952F5F3F4F77FDE7CF36
:1005B0000CC0440F551F661F771F17FD4160EE0CDE
:1005C000FF1C001F111F21503040403090E05907A0
:1005D00090E0690790E4790760F32B8F3C8FDB0193
:1005E000CA018F779070A070B07080349105A1051A
:1005F000B10561F447FD0AC0E114F10401051105DC
:1006000029F0405C5F4F6F4F7F4F40781A8EFE1786
:1006100011F081E08A8F4D8F5E8F6F8F78A383E01A
:10062000898FCE0149960E947105A096E2E10C9453
:10063000FB17A8E1B0E0EFE1F3E00C94E717698362
:100640007A838B839C832D833E834F835887B9E0C5
:10065000EB2EF12CEC0EFD1ECE010196B7010E948F
:1006600046068E010F5E1F4FCE010596B8010E940F
:1006700046062985223008F47EC03989323010F4CC
:10068000B8017CC08A859A8989278A87243011F02D
:10069000223031F4231709F06EC06CEA70E06EC0AE
:1006A000343039F41D861E861F86188A1C861B86E8
:1006B00004C0323021F484E08987B7015FC02B8504
:1006C0003C858B899C89281B390B3C872B87ED84C3
:1006D000FE840F851889AD88BE88CF88D88CEA142F
:1006E000FB040C051D0540F4EE0CFF1C001F111F40
:1006F000215030403C872B8720E030E040E050E044
:1007000080E090E0A0E0B0E460E070E0EA14FB0478
:100710000C051D0540F0282B392B4A2B5B2BEA18C2
:10072000FB080C091D09B695A79597958795EE0CC2
:10073000FF1C001F111F6F5F7F4F6F31710531F775
:10074000DA01C9018F779070A070B0708034910584
:10075000A105B10561F427FD0AC0E114F10401050A
:10076000110529F0205C3F4F4F4F5F4F20782D87B8
:100770003E874F87588BBE01675F7F4FCB010E943A
:1007800071056896EAE00C940318A8E1B0E0EBEC80
:10079000F3E00C94EB1769837A838B839C832D831E
:1007A0003E834F83588789E0E82EF12CEC0EFD1E26
:1007B000CE010196B7010E9446068E010F5E1F4FC3
:1007C000CE010596B8010E9446068985823040F028
:1007D0008989823028F0C701B8010E94BE0601C095
:1007E0008FEF6896E6E00C940718A8E1B0E0EBEF15
:1007F000F3E00C94EB1769837A838B839C832D83BE
:100800003E834F83588789E0E82EF12CEC0EFD1EC5
:10081000CE010196B7010E9446068E010F5E1F4F62
:10082000CE010596B8010E9446068985823040F0C7
:100830008989823028F0C701B8010E94BE0601C034
:100840008FEF6896E6E00C940718A8E1B0E0EBE2C1
:10085000F4E00C94EB1769837A838B839C832D835C
:100860003E834F83588789E0E82EF12CEC0EFD1E65
:10087000CE010196B7010E9446068E010F5E1F4F02
:10088000CE010596B8010E9446068985823040F067
:100890008989823028F0C701B8010E94BE0601C0D4
:1008A00081E06896E6E00C940718ACE0B0E0EBE578
:1008B000F4E00C94EF1769837A838B839C83CE01D9
:1008C0000196BE016B5F7F4F0E9446068D8182308C
:1008D00061F1823050F1843021F48E81882351F10E
:1008E0002EC02F81388537FD20C06E812F31310514
:1008F0001CF06623F9F023C08EE190E0821B930B7D
:1009000029853A854B855C8504C056954795379572
:1009100027958A95D2F76623B1F05095409530958A
:1009200021953F4F4F4F5F4F0EC020E030E040E039
:1009300050E009C02FEF3FEF4FEF5FE704C020E02A
:1009400030E040E050E8B901CA012C96E2E00C9496
:100950000B18A8E0B0E0EFEAF4E00C94E7177B0195
:100960008C01611571058105910519F482E0898377
:1009700060C083E089838EE1C82ED12CDC82CB82DB
:10098000ED82FE820F831887C801B7010E942205FD
:10099000FC013197F7FF3BC0222733272E1B3F0B6B
:1009A00057016801022E04C0D694C794B794A79447
:1009B0000A94D2F740E050E060E070E081E090E01F
:1009C000A0E0B0E004C0880F991FAA1FBB1F2A95A2
:1009D000D2F70197A109B1098E219F21A023B1234C
:1009E0000097A105B10521F041E050E060E070E022
:1009F0004A295B296C297D294D835E836F83788723
:100A00008EE190E08E1B9F0B9C838B8312C03097EE
:100A100081F00E2E04C0EE0CFF1C001F111F0A9463
:100A2000D2F7ED82FE820F831887CE1ADF0ADC82AE
:100A3000CB821A82CE0101960E9471052896EAE0C7
:100A40000C940318EF92FF920F931F937B018C017C
:100A500080E0E81680E0F80681E0080780E01807EB
:100A600088F48FEFE816F1040105110531F028F044
:100A700088E090E0A0E0B0E017C080E090E0A0E067
:100A8000B0E012C080E0E81680E0F80680E00807D9
:100A900081E0180728F088E190E0A0E0B0E004C011
:100AA00080E190E0A0E0B0E020E230E040E050E003
:100AB000281B390B4A0B5B0B04C016950795F7945E
:100AC000E7948A95D2F7F701EC54FF4F8081281BF9
:100AD000310941095109C9011F910F91FF90EF9010
:100AE0000895DF92EF92FF920F931F93FC01E48031
:100AF000F58006811781D1808081823048F480E0C2
:100B000090E0A0E1B0E0E82AF92A0A2B1B2BA5C04F
:100B1000843009F49FC0823021F4EE24FF24870141
:100B200005C0E114F1040105110519F4E0E0F0E05D
:100B300096C0628173819FEF623879070CF05BC0C9
:100B400022E83FEF261B370B2A3131052CF020E03D
:100B500030E040E050E02AC0B801A701022E04C0F6
:100B600076956795579547950A94D2F781E090E07E
:100B7000A0E0B0E004C0880F991FAA1FBB1F2A95F0
:100B8000D2F70197A109B1098E219F21A023B1239A
:100B90000097A105B10521F081E090E0A0E0B0E070
:100BA0009A01AB01282B392B4A2B5B2BDA01C901A7
:100BB0008F779070A070B07080349105A105B10559
:100BC00039F427FF09C0205C3F4F4F4F5F4F04C0EF
:100BD000215C3F4F4F4F5F4FE0E0F0E02030A0E05E
:100BE0003A07A0E04A07A0E45A0710F0E1E0F0E07D
:100BF00079018A0127C06038710564F5FB01E1586D
:100C0000FF4FD801C7018F779070A070B07080340B
:100C10009105A105B10539F4E7FE0DC080E490E02F
:100C2000A0E0B0E004C08FE390E0A0E0B0E0E80E08
:100C3000F91E0A1F1B1F17FF05C016950795F7948D
:100C4000E794319687E016950795F794E7948A958F
:100C5000D1F705C0EE24FF248701EFEFF0E06E2FFF
:100C6000679566276795902F9F77D794DD24D79453
:100C70008E2F8695492F462B582F5D29B701CA0123
:100C80001F910F91FF90EF90DF900895FC01DB0121
:100C9000408151812281622F6F7770E0221F2227CD
:100CA000221F9381892F880F822B282F30E0991FD4
:100CB0009927991F11969C93119721153105A9F534
:100CC000411551056105710511F482E037C082E8D4
:100CD0009FEF13969C938E9312979A01AB0167E056
:100CE000220F331F441F551F6A95D1F783E08C9361
:100CF0000DC0220F331F441F551F12968D919C91DA
:100D00001397019713969C938E931297203080E04F
:100D1000380780E0480780E4580758F314962D936D
:100D20003D934D935C93179708952F3F310579F4C8
:100D3000411551056105710519F484E08C930895FE
:100D400064FF03C081E08C9312C01C9210C02F5727
:100D5000304013963C932E93129783E08C9387E058
:100D6000440F551F661F771F8A95D1F7706414963C
:100D70004D935D936D937C93179708951F93DC01BA
:100D8000FB019C91923008F447C08081823008F4C6
:100D900043C0943051F411961C91843099F58181AF
:100DA000682F70E0611B71093FC0843021F09230E0
:100DB00031F48230B9F18181882389F12DC01196F7
:100DC0001C9111978230F1F081811817D9F4129695
:100DD0002D913C911397828193818217930794F010
:100DE00028173907BCF014968D919D910D90BC91F8
:100DF000A02D2481358146815781281739074A075C
:100E00005B0718F4112341F00AC082179307A40767
:100E1000B50740F4112319F061E070E005C06FEFF1
:100E20007FEF02C060E070E0CB011F910895DF9377
:100E3000CF93CDB7DEB7A7E2B0E0E7E2F0E0808184
:100E400080648C93A7E2B0E0E7E2F0E080818F77E6
:100E50008C93A7E2B0E0E7E2F0E080818F7D8C9395
:100E6000A6E2B0E0E6E2F0E0808181608C93A6E249
:100E7000B0E0E6E2F0E0808182608C93A6E2B0E030
:100E8000E6E2F0E0808184608C93A6E2B0E0E6E2E6
:100E9000F0E0808180688C93A6E2B0E0E6E2F0E0CA
:100EA000808180618C93CF91DF910895DF93CF9300
:100EB00000D000D00F92CDB7DEB78D83A7E2B0E0AF
:100EC000E7E2F0E08081807F8C93A7E2B0E0E7E288
:100ED000F0E090818D81892B8C93A6E2B0E0E6E270
:100EE000F0E0808180648C93E6E2F0E0808182957E
:100EF0008F70882F90E0817090700097A9F3A6E220
:100F0000B0E0E6E2F0E0808180618C93E4E2F0E022
:100F10008081882F90E09C838B83E5E2F0E08081E4
:100F2000882F90E0982F88279A83898329813A8196
:100F30008B819C81820F931F9A83898389819A81F7
:100F40000F900F900F900F900F90CF91DF91089519
:100F5000DF93CF93CDB7DEB727970FB6F894DEBFF8
:100F60000FBECDBF89836A834B838B81813009F0AB
:100F700070C08981282F30E03F832E838E819F812E
:100F80008230910551F12E813F812330310534F4B7
:100F90008E819F818130910561F0D3C02E813F8188
:100FA0002330310571F18E819F8184309105E9F103
:100FB000C8C0ABE3B0E0EBE3F0E08081482F8A816A
:100FC000282F30E081E090E0022E02C0880F991FA8
:100FD0000A94E2F7842B8C93B4C0A8E3B0E0E8E372
:100FE000F0E08081482F8A81282F30E081E090E076
:100FF000022E02C0880F991F0A94E2F7842B8C936B
:10100000A0C0A5E3B0E0E5E3F0E08081482F8A814D
:10101000282F30E081E090E0022E02C0880F991F57
:101020000A94E2F7842B8C938CC0A2E3B0E0E2E355
:10103000F0E08081482F8A81282F30E081E090E025
:10104000022E02C0880F991F0A94E2F7842B8C931A
:1010500078C08B81882309F074C08981282F30E003
:101060003D832C838C819D818230910561F12C819F
:101070003D812330310534F48C819D81813091058F
:1010800069F05FC02C813D812330310589F18C816D
:101090009D818430910509F440C053C0ABE3B0E0BA
:1010A000EBE3F0E08081482F8A81282F30E081E057
:1010B00090E0022E02C0880F991F0A94E2F78095F3
:1010C00084238C933EC0A8E3B0E0E8E3F0E08081A5
:1010D000482F8A81282F30E081E090E0022E02C064
:1010E000880F991F0A94E2F7809584238C9329C076
:1010F000A5E3B0E0E5E3F0E08081482F8A81282F66
:1011000030E081E090E0022E02C0880F991F0A941F
:10111000E2F7809584238C9314C0A2E3B0E0E2E36D
:10112000F0E08081482F8A81282F30E081E090E034
:10113000022E02C0880F991F0A94E2F7809584233B
:101140008C9327960FB6F894DEBF0FBECDBFCF911C
:10115000DF910895DF93CF93CDB7DEB727970FB612
:10116000F894DEBF0FBECDBF89836A834B838B812A
:10117000882309F075C08981282F30E03F832E83B2
:101180008E819F818230910561F12E813F812330D4
:10119000310534F48E819F818130910569F0D3C08F
:1011A0002E813F812330310589F18E819F818430EA
:1011B000910509F440C0C7C0AAE3B0E0EAE3F0E05B
:1011C0008081482F8A81282F30E081E090E0022E34
:1011D00002C0880F991F0A94E2F7809584238C93AC
:1011E000B2C0A7E3B0E0E7E3F0E08081482F8A8156
:1011F000282F30E081E090E0022E02C0880F991F76
:101200000A94E2F7809584238C939DC0A4E3B0E018
:10121000E4E3F0E08081482F8A81282F30E081E0EC
:1012200090E0022E02C0880F991F0A94E2F7809581
:1012300084238C9388C0A1E3B0E0E1E3F0E08081F7
:10124000482F8A81282F30E081E090E0022E02C0F2
:10125000880F991F0A94E2F7809584238C9373C0BA
:101260008B81813009F06FC08981282F30E03D8368
:101270002C838C819D818230910551F12C813D819F
:101280002330310534F48C819D818130910561F0EA
:101290005AC02C813D812330310571F18C819D81B3
:1012A00084309105E9F14FC0AAE3B0E0EAE3F0E051
:1012B0008081482F8A81282F30E081E090E0022E43
:1012C00002C0880F991F0A94E2F7842B8C933BC0CD
:1012D000A7E3B0E0E7E3F0E08081482F8A81282F80
:1012E00030E081E090E0022E02C0880F991F0A943E
:1012F000E2F7842B8C9327C0A4E3B0E0E4E3F0E0B2
:101300008081482F8A81282F30E081E090E0022EF2
:1013100002C0880F991F0A94E2F7842B8C9313C0A4
:10132000A1E3B0E0E1E3F0E08081482F8A81282F3B
:1013300030E081E090E0022E02C0880F991F0A94ED
:10134000E2F7842B8C9327960FB6F894DEBF0FBE7E
:10135000CDBFCF91DF910895DF93CF9300D000D020
:1013600000D0CDB7DEB789836A835C834B838981E4
:10137000282F30E03E832D834D815E814230510520
:1013800059F18D819E818330910534F42D813E8108
:101390002130310569F05BC04D815E8143305105DC
:1013A00079F18D819E818430910509F43DC04FC053
:1013B000E9E3F0E08081282F30E08A81882F90E0F7
:1013C000A90102C0559547958A95E2F7CA01817037
:1013D000EB81FC8180833BC0E6E3F0E08081282F35
:1013E00030E08A81882F90E0A90102C05595479589
:1013F0008A95E2F7CA018170EB81FC81808327C066
:10140000E3E3F0E08081282F30E08A81882F90E0AC
:10141000A90102C0559547958A95E2F7CA018170E6
:10142000EB81FC81808313C0E0E3F0E08081282F12
:1014300030E08A81882F90E0A90102C05595479538
:101440008A95E2F7CA018170EB81FC818083269640
:101450000FB6F894DEBF0FBECDBFCF91DF910895D8
:10146000DF93CF9300D000D0CDB7DEB789836A83F6
:101470008981282F30E03C832B838B819C818230B3
:101480009105D9F02B813C812330310534F48B81D7
:101490009C818130910561F01EC02B813C812330FD
:1014A000310581F08B819C818430910581F013C0DE
:1014B000EBE3F0E08A8180830EC0E8E3F0E08A810C
:1014C000808309C0E5E3F0E08A81808304C0E2E321
:1014D000F0E08A8180830F900F900F900F90CF9152
:1014E000DF910895DF93CF9300D000D0CDB7DEB762
:1014F00089836A838981282F30E03C832B838B8109
:101500009C8182309105D9F02B813C8123303105BB
:1015100034F48B819C818130910561F01EC02B8158
:101520003C812330310581F08B819C818430910591
:1015300081F013C0EAE3F0E08A8180830EC0E7E324
:10154000F0E08A81808309C0E4E3F0E08A8180834F
:1015500004C0E1E3F0E08A8180830F900F900F9048
:101560000F90CF91DF910895DF93CF9300D000D0FB
:101570000F92CDB7DEB789837B836A838981282F59
:1015800030E03D832C838C819D8182309105E9F090
:101590002C813D812330310534F48C819D81813053
:1015A000910561F026C02C813D8123303105A1F0E9
:1015B0008C819D8184309105B1F01BC0E9E3F0E09E
:1015C0008081EA81FB81808314C0E6E3F0E08081C2
:1015D000EA81FB8180830DC0E3E3F0E08081EA8152
:1015E000FB81808306C0E0E3F0E08081EA81FB813B
:1015F00080830F900F900F900F900F90CF91DF91FD
:101600000895DF93CF93CDB7DEB7ADE2B0E0EDE262
:10161000F0E0808181608C93ADE2B0E0EDE2F0E03B
:10162000808180648C93CF91DF910895DF93CF9375
:101630000F92CDB7DEB78983EFE2F0E08981808336
:10164000EEE2F0E080818823DCF70F90CF91DF910C
:101650000895DF93CF93CDB7DEB7EEE2F0E080815F
:101660008823DCF7EFE2F0E08081CF91DF910895ED
:10167000DF93CF930F92CDB7DEB78983EFE2F0E02F
:1016800089818083EEE2F0E080818823DCF7EFE25D
:10169000F0E080810F90CF91DF910895DF93CF9399
:1016A00000D0CDB7DEB79A8389830AC0E981FA8179
:1016B00080810E94160B89819A8101969A83898381
:1016C000E981FA818081882389F70F900F90CF916B
:1016D000DF9108950F931F93DF93CF9300D00F9264
:1016E000CDB7DEB79B838A8319828981282F30E0AA
:1016F0008A819B818C01020F131F0E94290BF80124
:1017000080830FC089818F5F89838981282F30E092
:101710008A819B818C01020F131F0E94290BF80103
:1017200080838981282F30E08A819B81FC01E20F30
:10173000F31F8081833231F78981282F30E08A813D
:101740009B81FC01E20FF31F10820F900F900F900E
:10175000CF91DF911F910F9108951F920F920FB6B5
:101760000F921124DF93CF93CDB7DEB7CF91DF91E6
:101770000F900FBE0F901F901895DF93CF93CDB7AA
:10178000DEB7A3E5B0E0E3E5F0E080818E7F8C93E7
:10179000A3E5B0E0E3E5F0E080818D7F8C93A3E5E5
:1017A000B0E0E3E5F0E080818B7F8C93AEE4B0E0C5
:1017B000EEE4F0E0808188608C93A9E5B0E0E9E593
:1017C000F0E0808180618C93A9E5B0E0E9E5F0E08C
:1017D0008081877F8C93A9E5B0E0E9E5F0E0808126
:1017E00088608C93A9E5B0E0E9E5F0E08081806154
:1017F0008C93AFE4B0E0EFE4F0E080818F7B8C93DA
:10180000AFE4B0E0EFE4F0E080818F778C93AEE45A
:10181000B0E0EEE4F0E0808181608C93AEE4B0E073
:10182000EEE4F0E0808184608C93AEE4B0E0EEE41E
:10183000F0E080818D7F8C93EEE4F0E080818093F6
:10184000DA01A5E4B0E0E5E4F0E080818E7F8C93DE
:10185000A5E4B0E0E5E4F0E080818D7F8C93A5E421
:10186000B0E0E5E4F0E080818B7F8C93CF91DF9155
:101870000895DF93CF9300D00F92CDB7DEB7898361
:101880008981282F30E03B832A838A819B818130A4
:10189000910501F12A813B812230310589F18A814C
:1018A0009B81009709F041C0A3E5B0E0E3E5F0E0DB
:1018B00080818E7F8C93A3E5B0E0E3E5F0E080814A
:1018C0008D7F8C93A3E5B0E0E3E5F0E080818B7F32
:1018D0008C932BC0AEE4B0E0EEE4F0E080818E7F2C
:1018E0008C93AEE4B0E0EEE4F0E080818D7F8C93E9
:1018F000AEE4B0E0EEE4F0E080818B7F8C9315C025
:10190000A5E4B0E0E5E4F0E080818E7F8C93A5E46F
:10191000B0E0E5E4F0E080818D7F8C93A5E4B0E059
:10192000E5E4F0E080818B7F8C930F900F900F9017
:10193000CF91DF910895DF93CF9300D00F92CDB771
:10194000DEB789838981282F30E03B832A838A810F
:101950009B818130910579F02A813B8122303105CC
:1019600081F08A819B81009789F4E3E5F0E0809122
:10197000D90180830BC0EEE4F0E08091DA0180832E
:1019800005C0E5E4F0E08091DB0180830F900F90CB
:101990000F90CF91DF910895DF93CF9300D0CDB713
:1019A000DEB789836A83EAE4F0E085E89EE191830B
:1019B00080830F900F90CF91DF910895DF93CF93A5
:1019C00000D0CDB7DEB79A8389830F900F90CF9167
:1019D000DF910895DF93CF9300D00F92CDB7DEB79C
:1019E00089837B836A83E2E5F0E08091C401909172
:1019F000C5018083ECE4F0E08091C6019091C701BD
:101A000091838083E4E4F0E08091C8019091C90162
:101A100080838981882F90E0880F991FFC01E25311
:101A2000FE4F8A819B819183808383E067E041E060
:101A30000E94A8070F900F900F90CF91DF9108950B
:101A4000DF93CF93CDB7DEB7A9E5B0E0E9E5F0E0ED
:101A5000808180628C93CF91DF910895DF93CF9343
:101A6000CDB7DEB7A9E5B0E0E9E5F0E080818F7D94
:101A70008C93CF91DF910895DF93CF93CDB7DEB7ED
:101A80008091DE019091DF019695982F8827979598
:101A90008795CF91DF910895DF93CF93CDB7DEB7D0
:101AA0008091E0019091E101CF91DF910895DF9362
:101AB000CF93CDB7DEB78091DC019091DD01969593
:101AC000982F882797958795CF91DF910895DF9379
:101AD000CF93CDB7DEB72091DE013091DF01809149
:101AE000DC019091DD01A901481B590BCA019695B3
:101AF000982F882797958795CF91DF9108951F920A
:101B00000F920FB60F9211242F933F934F935F9331
:101B10006F937F938F939F93AF93BF93EF93FF93B5
:101B2000DF93CF93CDB7DEB78091D801882309F03A
:101B30004DC081E08093D801E6E4F0E0208131815E
:101B40008091D6019091D701A901481B590BCA0178
:101B50009093DF018093DE012091D4013091D50173
:101B60008091D6019091D701A901481B590BCA0158
:101B70009093DD018093DC01E6E4F0E080819181C7
:101B80009093D7018093D6012091DC013091DD0143
:101B900084E690E0AC01249FC001259F900D349F06
:101BA000900D11242091DE013091DF01B9010E94D6
:101BB000CB17CB019093E1018093E001AEE4B0E05C
:101BC000EEE4F0E080818F7B8C9311C01092D801FD
:101BD000E6E4F0E0808191819093D5018093D40177
:101BE000AEE4B0E0EEE4F0E0808180648C93CF91CD
:101BF000DF91FF91EF91BF91AF919F918F917F9175
:101C00006F915F914F913F912F910F900FBE0F9069
:101C10001F9018951F920F920FB60F9211242F93B9
:101C20003F934F935F936F937F938F939F93AF9364
:101C3000BF93EF93FF93DF93CF93CDB7DEB7809140
:101C4000CE019091CF01009721F18091BE0190913A
:101C5000BF0101969093BF018093BE012091BE0108
:101C60003091BF018091CA019091CB0128173907AB
:101C700081F41092BF011092BE01E2E5F0E0809184
:101C8000C4019091C5018083E091CE01F091CF0114
:101C90000995CF91DF91FF91EF91BF91AF919F9106
:101CA0008F917F916F915F914F913F912F910F9005
:101CB0000FBE0F901F9018951F920F920FB60F92A4
:101CC00011242F933F934F935F936F937F938F9341
:101CD0009F93AF93BF93EF93FF93DF93CF93CDB7D2
:101CE000DEB78091D0019091D101009769F1809188
:101CF000C0019091C10101969093C1018093C001F0
:101D00002091C0013091C1018091B4019091B50141
:101D100028173907C9F41092C1011092C001EDE4EF
:101D2000F0E08091C6019091C701892F99278083A7
:101D3000ECE4F0E08091C6019091C7018083E091CE
:101D4000D001F091D1010995CF91DF91FF91EF91F1
:101D5000BF91AF919F918F917F916F915F914F91C3
:101D60003F912F910F900FBE0F901F9018951F92CB
:101D70000F920FB60F9211242F933F934F935F93BF
:101D80006F937F938F939F93AF93BF93EF93FF9343
:101D9000DF93CF93CDB7DEB78091D2019091D3017D
:101DA000009721F18091C2019091C3010196909317
:101DB000C3018093C2012091C2013091C30180917F
:101DC000CC019091CD012817390781F41092C301FD
:101DD0001092C201E4E4F0E08091C8019091C90141
:101DE0008083E091D201F091D3010995CF91DF91E9
:101DF000FF91EF91BF91AF919F918F917F916F91E3
:101E00005F914F913F912F910F900FBE0F901F90B8
:101E100018951F920F920FB60F9211242F933F9394
:101E20004F935F936F937F938F939F93AF93BF93E2
:101E3000EF93FF93DF93CF93CDB7DEB78091CE01C1
:101E40009091CF010097E9F08091BE019091BF0180
:101E500001969093BF018093BE012091BE01309105
:101E6000BF018091CA019091CB012817390749F42D
:101E70001092BF011092BE01E091CE01F091CF010E
:101E80000995CF91DF91FF91EF91BF91AF919F9114
:101E90008F917F916F915F914F913F912F910F9013
:101EA0000FBE0F901F9018951F920F920FB60F92B2
:101EB00011242F933F934F935F936F937F938F934F
:101EC0009F93AF93BF93EF93FF93DF93CF93CDB7E0
:101ED000DEB78091D0019091D1010097E9F0809117
:101EE000C0019091C10101969093C1018093C001FE
:101EF0002091C0013091C1018091B4019091B50150
:101F00002817390749F41092C1011092C001E091DD
:101F1000D001F091D1010995CF91DF91FF91EF911F
:101F2000BF91AF919F918F917F916F915F914F91F1
:101F30003F912F910F900FBE0F901F9018951F92F9
:101F40000F920FB60F9211242F933F934F935F93ED
:101F50006F937F938F939F93AF93BF93EF93FF9371
:101F6000DF93CF93CDB7DEB78091D0019091D101AF
:101F70000097E9F08091C0019091C1010196909382
:101F8000C1018093C0012091C0013091C1018091B5
:101F9000B4019091B5012817390749F41092C10195
:101FA0001092C001E091D001F091D1010995CF913B
:101FB000DF91FF91EF91BF91AF919F918F917F91B1
:101FC0006F915F914F913F912F910F900FBE0F90A6
:101FD0001F9018951F920F920FB60F9211242F93F6
:101FE0003F934F935F936F937F938F939F93AF93A1
:101FF000BF93EF93FF93DF93CF93CDB7DEB780917D
:10200000D2019091D3010097E9F08091C2019091A3
:10201000C30101969093C3018093C2012091C20134
:102020003091C3018091CC019091CD0128173907DF
:1020300049F41092C3011092C201E091D201F091D3
:10204000D3010995CF91DF91FF91EF91BF91AF91AE
:102050009F918F917F916F915F914F913F912F91C0
:102060000F900FBE0F901F901895DF93CF93CDB7B1
:10207000DEB7ABE2B0E0EBE2F0E0808182608C930F
:10208000E9E2F0E087E68083E0E4F0E01082AAE293
:10209000B0E0EAE2F0E0808188608C93AAE2B0E0F0
:1020A000EAE2F0E0808180618C93A0E4B0E0E0E4BB
:1020B000F0E0808186688C93CF91DF910895DF9363
:1020C000CF930F92CDB7DEB78983ECE2F0E0898140
:1020D0008083EBE2F0E08081829586958770882F7F
:1020E00090E0817090700097A1F30F90CF91DF91F5
:1020F0000895DF93CF93CDB7DEB7EBE2F0E08081B8
:102100008823DCF7ECE2F0E08081CF91DF91089545
:10211000DF93CF9300D0CDB7DEB79A8389830AC00F
:10212000E981FA8180810E945F1089819A810196FC
:102130009A838983E981FA818081882389F70F90C6
:102140000F90CF91DF9108950F931F93DF93CF935B
:1021500000D00F92CDB7DEB79B838A831982898125
:10216000282F30E08A819B818C01020F131F0E946F
:102170007910F80180838981282F30E08A819B8142
:10218000FC01E20FF31F80810E945F101AC0898159
:102190008F5F89838981282F30E08A819B818C0120
:1021A000020F131F0E947910F80180838981282F64
:1021B00030E08A819B81FC01E20FF31F80810E9445
:1021C0005F108981282F30E08A819B81FC01E20F1A
:1021D000F31F80818D30D9F68981282F30E08A81E4
:1021E0009B81FC01E20FF31F10820F900F900F9064
:1021F000CF91DF911F910F910895DF93CF93CDB7CA
:10220000DEB72F970FB6F894DEBF0FBECDBF8F8716
:1022100081E065E040E00E94A80781E066E040E0E0
:102220000E94A80783E06F850E94300A81E067E082
:1022300041E00E94A80780E090E0A0E0B0E48B8736
:102240009C87AD87BE876B857C858D859E8520E0CC
:1022500030E04AEF54E40E941F02DC01CB018F837F
:102260009887A987BA876F81788589859A8520E0C4
:1022700030E040E85FE30E94250488232CF481E0ED
:1022800090E09E838D833FC06F81788589859A8594
:1022900020E03FEF4FE757E40E94C50318164CF5C6
:1022A0006B857C858D859E8520E030E040E251E4A1
:1022B0000E941F02DC01CB01BC01CD010E9449003C
:1022C000DC01CB019E838D830FC088EC90E09C8362
:1022D0008B838B819C810197F1F79C838B838D810C
:1022E0009E8101979E838D838D819E81009769F7E2
:1022F00014C06F81788589859A850E944900DC0128
:10230000CB019E838D838D819E819A838983898170
:102310009A810197F1F79A83898381E067E040E031
:102320000E94A8072F960FB6F894DEBF0FBECDBF50
:10233000CF91DF910895DF93CF93CDB7DEB72F977D
:102340000FB6F894DEBF0FBECDBF8F8781E065E08A
:1023500041E00E94A80781E066E040E00E94A807F3
:1023600083E06F850E94300A81E067E041E00E94CF
:10237000A80780E090E0A0E0B0E48B879C87AD8761
:10238000BE876B857C858D859E8520E030E04AEF99
:1023900054E40E941F02DC01CB018F839887A98738
:1023A000BA876F81788589859A8520E030E040E89A
:1023B0005FE30E94250488232CF481E090E09E8353
:1023C0008D833FC06F81788589859A8520E03FEFB6
:1023D0004FE757E40E94C50318164CF56B857C85C2
:1023E0008D859E8520E030E040E251E40E941F028E
:1023F000DC01CB01BC01CD010E944900DC01CB0115
:102400009E838D830FC088EC90E09C838B838B81AF
:102410009C810197F1F79C838B838D819E8101972D
:102420009E838D838D819E81009769F714C06F8193
:10243000788589859A850E944900DC01CB019E83BD
:102440008D838D819E819A83898389819A81019769
:10245000F1F79A83898381E067E040E00E94A80752
:102460002F960FB6F894DEBF0FBECDBFCF91DF9190
:1024700008950F931F93DF93CF93CDB7DEB7CC545E
:10248000D0400FB6F894DEBF0FBECDBFFE01E75BB4
:10249000FF4F80E090E0A0E2B2E480839183A283CA
:1024A000B3838E010B5B1F4FFE01E75BFF4F608123
:1024B00071818281938120E030E04AEF54E40E94F0
:1024C0001F02DC01CB01F80180839183A283B383D7
:1024D000FE01EB5BFF4F608171818281938120E07F
:1024E00030E040E85FE30E942504882344F4FE01C5
:1024F000ED5BFF4F81E090E09183808364C0FE013B
:10250000EB5BFF4F608171818281938120E03FEF1F
:102510004FE757E40E94C50318160CF043C0FE01B4
:10252000E75BFF4F608171818281938120E030E021
:1025300040E251E40E941F02DC01CB018E010D5BE1
:102540001F4FBC01CD010E944900DC01CB01F80105
:10255000918380831FC0FE01EF5BFF4F88EC90E00A
:1025600091838083FE01EF5BFF4F80819181019712
:10257000F1F7FE01EF5BFF4F91838083DE01AD5BDE
:10258000BF4FFE01ED5BFF4F808191810197119656
:102590009C938E93FE01ED5BFF4F808191810097AC
:1025A000D1F624C08E010D5B1F4FFE01EB5BFF4F88
:1025B00060817181828193810E944900DC01CB019D
:1025C000F80191838083FE01ED5BFF4F8081918153
:1025D000FE01FF9691838083FE01FF9680819181A9
:1025E0000197F1F7FE01FF96918380838FE30E94AC
:1025F000FD1080E090E0A4E4B2E48BAF9CAFADAFFF
:10260000BEAF6BAD7CAD8DAD9EAD2BEA3AEA4AE232
:1026100050E40E941F02DC01CB018FAB98AFA9AF41
:10262000BAAF6FA978AD89AD9AAD20E030E040E84F
:102630005FE30E94250488231CF481E08EAB91C0E7
:102640006FA978AD89AD9AAD20E030E04FE753E453
:102650000E94C50318160CF07BC06BAD7CAD8DAD30
:102660009EAD20E030E04AE754E40E941903DC010B
:10267000CB018AAB9BABACABBDAB6AA97BA98CA9E8
:102680009DA920E030E04AEF54E40E941F02DC01E3
:10269000CB018EA79FA7A8ABB9AB6EA57FA588A9D4
:1026A00099A920E030E040E85FE30E9425048823F8
:1026B0002CF481E090E09DA78CA73FC06EA57FA57C
:1026C00088A999A920E03FEF4FE757E40E94C5038E
:1026D00018164CF56AA97BA98CA99DA920E030E0C9
:1026E00040E251E40E941F02DC01CB01BC01CD019C
:1026F0000E944900DC01CB019DA78CA70FC088EC8C
:1027000090E09BA78AA78AA59BA50197F1F79BA7B5
:102710008AA78CA59DA501979DA78CA78CA59DA593
:10272000009769F724C06EA57FA588A999A90E9482
:102730004900DC01CB019DA78CA78CA59DA599A77D
:1027400088A788A599A50197F1F799A788A70FC031
:102750006FA978AD89AD9AAD0E944900DC01CB012B
:102760008EAB8EA98FA38FA18A95F1F78FA38CE0F2
:102770000E94FD1080E090E0A4E4B2E48BA39CA34F
:10278000ADA3BEA36BA17CA18DA19EA12BEA3AEAC9
:102790004AE250E40E941F02DC01CB018F8F98A314
:1027A000A9A3BAA36F8D78A189A19AA120E030E0F6
:1027B00040E85FE30E94250488231CF481E08E8FAB
:1027C00091C06F8D78A189A19AA120E030E04FE7F8
:1027D00053E40E94C50318160CF07BC06BA17CA1CA
:1027E0008DA19EA120E030E04AE754E40E94190345
:1027F000DC01CB018A8F9B8FAC8FBD8F6A8D7B8D67
:102800008C8D9D8D20E030E04AEF54E40E941F0241
:10281000DC01CB018E8B9F8BA88FB98F6E897F894E
:10282000888D998D20E030E040E85FE30E94250428
:1028300088232CF481E090E09D8B8C8B3FC06E89C7
:102840007F89888D998D20E03FEF4FE757E40E9404
:10285000C50318164CF56A8D7B8D8C8D9D8D20E0FF
:1028600030E040E251E40E941F02DC01CB01BC01D8
:10287000CD010E944900DC01CB019D8B8C8B0FC0E8
:1028800088EC90E09B8B8A8B8A899B890197F1F772
:102890009B8B8A8B8C899D8901979D8B8C8B8C89D6
:1028A0009D89009769F724C06E897F89888D998DED
:1028B0000E944900DC01CB019D8B8C8B8C899D890A
:1028C000998B888B888999890197F1F7998B888BE7
:1028D0000FC06F8D78A189A19AA10E944900DC01E7
:1028E000CB018E8F8E8D8F878F858A95F1F78F879D
:1028F00081E00E94FD1080E090E0A0E0B0E48B87D2
:102900009C87AD87BE876B857C858D859E8520E005
:1029100030E04AEF54E40E941F02DC01CB018F83B8
:102920009887A987BA876F81788589859A8520E0FD
:1029300030E040E85FE30E94250488232CF481E026
:1029400090E09E838D833FC06F81788589859A85CD
:1029500020E03FEF4FE757E40E94C50318164CF5FF
:102960006B857C858D859E8520E030E040E251E4DA
:102970000E941F02DC01CB01BC01CD010E94490075
:10298000DC01CB019E838D830FC088EC90E09C839B
:102990008B838B819C810197F1F79C838B838D8145
:1029A0009E8101979E838D838D819E81009769F71B
:1029B00014C06F81788589859A850E944900DC0161
:1029C000CB019E838D838D819E819A8389838981AA
:1029D0009A810197F1F79A838983C45BDF4F0FB621
:1029E000F894DEBF0FBECDBFCF91DF911F910F9145
:1029F0000895DF93CF93CDB7DEB72E970FB6F89437
:102A0000DEBF0FBECDBF81E00E94FD1080E090E0F0
:102A1000A0E0B0E48B879C87AD87BE876B857C8503
:102A20008D859E8520E030E04AEF54E40E941F022D
:102A3000DC01CB018F839887A987BA876F8178855E
:102A400089859A8520E030E040E85FE30E94250414
:102A500088232CF481E090E09E838D833FC06F81BA
:102A6000788589859A8520E03FEF4FE757E40E94FB
:102A7000C50318164CF56B857C858D859E8520E0F9
:102A800030E040E251E40E941F02DC01CB01BC01B6
:102A9000CD010E944900DC01CB019E838D830FC0D4
:102AA00088EC90E09C838B838B819C810197F1F76C
:102AB0009C838B838D819E8101979E838D838D81E5
:102AC0009E81009769F714C06F81788589859A8502
:102AD0000E944900DC01CB019E838D838D819E8104
:102AE0009A83898389819A810197F1F79A838983EF
:102AF0002E960FB6F894DEBF0FBECDBFCF91DF91FB
:102B00000895DF93CF9300D00F92CDB7DEB78A83BD
:102B10006B8319828A81882319F48B81898306C08B
:102B20008A81813019F48B81805C89838981805806
:102B30000E94FD100F900F900F90CF91DF9108959C
:102B4000DF93CF9300D000D00F92CDB7DEB79C8338
:102B50008B836D831A828D81882F90E0880F991F57
:102B6000880F991F880F991F8A838A81805C0E9431
:102B7000FD1019820EC08981282F30E08B819C8145
:102B8000FC01E20FF31F80810E949B1189818F5FFE
:102B900089838981883078F30F900F900F900F9080
:102BA0000F90CF91DF910895DF93CF9300D0CDB7F1
:102BB000DEB79A8389830AC0E981FA8180810E9405
:102BC0009B1189819A8101969A838983E981FA818F
:102BD0008081882389F70F900F90CF91DF9108951E
:102BE000DF93CF93CDB7DEB7A1E3B0E0E1E3F0E050
:102BF000808186608C93A1E3B0E0E1E3F0E0808126
:102C000082608C93EAE4F0E088EC90E0918380832A
:102C1000EFE4F0E081E88083EEE4F0E08BE0808395
:102C2000CF91DF910895DF93CF9300D00F92CDB76E
:102C3000DEB789838981282F30E03B832A838A810C
:102C40009B8182349105A1F02A813B812634310594
:102C5000E9F4A2E3B0E0E2E3F0E0808182608C93EB
:102C6000A2E3B0E0E2E3F0E080818B7F8C930EC0C2
:102C7000A2E3B0E0E2E3F0E0808184608C93A2E321
:102C8000B0E0E2E3F0E080818D7F8C930F900F90B5
:102C90000F90CF91DF910895DF93CF93CDB7DEB73B
:102CA00065970FB6F894DEBF0FBECDBF83E06FEF20
:102CB0000E94720A81E065E041E00E94AA0881E07A
:102CC00066E041E00E94AA0881E067E041E00E94DE
:102CD000AA080E9439120E9417070E94F01582E08C
:102CE00064E040E00E94AA0882E065E040E00E94C3
:102CF000AA0882E067E040E00E94AA0882E066E05D
:102D000041E00E94AA080E94010B84E060E041E0DB
:102D10000E94AA08198A188A0E94290B8F8780E0CE
:102D200090E0A8ECB2E48B879C87AD87BE876B856B
:102D30007C858D859E8520E030E04AEF54E40E943A
:102D40001F02DC01CB018F839887A987BA876F8127
:102D5000788589859A8520E030E040E85FE30E942D
:102D6000250488232CF481E090E09E838D833FC06E
:102D70006F81788589859A8520E03FEF4FE757E49A
:102D80000E94C50318164CF56B857C858D859E8544
:102D900020E030E040E251E40E941F02DC01CB0160
:102DA000BC01CD010E944900DC01CB019E838D83D3
:102DB0000FC088EC90E09C838B838B819C81019772
:102DC000F1F79C838B838D819E8101979E838D83F8
:102DD0008D819E81009769F714C06F817885898500
:102DE0009A850E944900DC01CB019E838D838D81F1
:102DF0009E819A83898389819A810197F1F79A83C9
:102E000089838F85282F30E03D8B2C8B8C899D8981
:102E100083339105A1F12C893D89243331055CF47C
:102E20008C899D898133910591F02C893D892233CC
:102E30003105C9F071CF8C899D8984339105A9F141
:102E40002C893D892434310509F445C065CF84E0DF
:102E500060E041E00E94A8070E94F91480E690E03B
:102E60000E94D41559CF84E060E040E00E94A8079A
:102E70000E94F91489E690E00E94D4154DCF86E4B3
:102E80000E9413160E94F91480E060E00E948115F0
:102E900083E790E00E94D41581E060E00E948115F4
:102EA0008FE790E00E94D41537CF82E40E9413167A
:102EB0000E94F91480E060E00E94811583E790E0B1
:102EC0000E94D41581E060E00E9481158BE890E0BB
:102ED0000E94D41521CF80E00E945607998B888BE1
:102EE00088899989CC01A0E0B0E0BC01CD010E94A5
:102EF000A904DC01CB01BC01CD0120E030E040EAB7
:102F000050E40E941F02DC01CB01BC01CD0120E096
:102F100030EC4FE754E40E941903DC01CB01BC0103
:102F2000CD0120E030E048EC52E40E941F02DC01B9
:102F3000CB01BC01CD010E944900DC01CB01998B82
:102F4000888B888999899E012E5E3F4FB9014AE09E
:102F500050E00E9416188A890E94380B813291F441
:102F60000E94F91480E060E00E94811588E990E0F9
:102F70000E94D41581E060E00E94811580EA90E013
:102F80000E94D4158B890E94380B823209F0C4CE7E
:102F90000E94F914C1CEAA1BBB1B51E107C0AA1F96
:102FA000BB1FA617B70710F0A61BB70B881F991FEA
:102FB0005A95A9F780959095BC01CD0108952F925F
:102FC0003F924F925F926F927F928F929F92AF92B9
:102FD000BF92CF92DF92EF92FF920F931F93CF9306
:102FE000DF93CDB7DEB7CA1BDB0B0FB6F894DEBF9D
:102FF0000FBECDBF09942A88398848885F846E84C3
:103000007D848C849B84AA84B984C884DF80EE800C
:10301000FD800C811B81AA81B981CE0FD11D0FB615
:10302000F894DEBF0FBECDBFED010895FB019F01F7
:10303000E8944230C4F04532B4F44A3029F497FBA6
:103040001EF4909581959F4F642F77270E94CB1790
:10305000805D8A330CF0895D8193CB010097A1F7E5
:1030600016F45DE251931082C9010C943718DC010B
:10307000FC01672F71917723E1F7329704C07C91AF
:103080006D9370836291AE17BF07C8F30895F894EB
:02309000FFCF70
:103092004C69676874204F4E004C69676874204F12
:1030A2004646004443204D6F746F72204F4E0046D7
:1030B2006F727761726420446972004261636B7758
:1030C200617264204469720052656164696E6700CE
:1030D20054656D7065726174757265000000000060
:1030E20000000000000102020303030304040404BD
:1030F2000404040405050505050505050505050582
:103102000505050506060606060606060606060661
:10311200060606060606060606060606060606064D
:103122000606060607070707070707070707070731
:10313200070707070707070707070707070707071D
:10314200070707070707070707070707070707070D
:1031520007070707070707070707070707070707FD
:1031620007070707080808080808080808080808E1
:1031720008080808080808080808080808080808CD
:1031820008080808080808080808080808080808BD
:1031920008080808080808080808080808080808AD
:1031A200080808080808080808080808080808089D
:1031B200080808080808080808080808080808088D
:1031C200080808080808080808080808080808087D
:1031D200080808080808080808080808080808086D
:0E31E2000808080805000004001F0004000093
:00000001FF
